:100000008431922C013400347E14803120007F082A
:10001000F100911E5A2823009D1C19281D121D163F
:100020002000111E1028463023009A002000111EC7
:10003000162823001908F00020005B08A03E860067
:10004000870170088100253021002006031D432808
:1000500001302000DB070030DC3D5C08803AF00016
:1000600080307002031D362810305B02031C5A28B2
:100070002000DB01DC0101302100E4000030E5005C
:10008000200091125A2823001D121D162000DB01AA
:10009000DC01111E4928463023009A002000111E61
:1000A0004E28523023009A002000111E542852304E
:1000B00023009A002100911C68282000911C6828C8
:1000C00023001A0803196028200091108C151C11B8
:1000D0002100111C74282000111C74281110181004
:1000E0008C119F309B001C152100931C7E28200042
:1000F000931C7E2893109016280017112100131CC2
:100100008B282000131C8B28131090129F3028007E
:100110009600171513102000111D131A9128141F93
:100120008E2C111D7A2A1111210062036304031D14
:10013000782A200059035A040319662A782A7B304A
:10014000422A7C30462A7D3097008830502A7F3002
:1001500097001830502A8030F3298130F7298330F6
:10016000FF2983309700C830502AD3288530970064
:100170005830502A5408003A0319BF28782A5308E7
:10018000D03E031C782A84000A3004020318782A1F
:1001900088310435003E8200782A8630072A86306E
:1001A0009700E830502A87300B2A88300F2A893090
:1001B000132A8A3097000830502A8A302A2A8B3036
:1001C00097009830502A8C302E2A8D309700283096
:1001D000502A5408003A0319EE28782A5308D03ED2
:1001E000031C782A84000A3004020318782A883114
:1001F0000435143E8200782A8D30322A8E309700E2
:10020000B830502A8F30362A903097004830502A24
:1002100091303A2A91309700D830502A92303E2AB5
:10022000933097006830502A9430422A94309700D7
:10023000F830502A5408003A03191F29782A530825
:10024000D03E031C782A84000A3004020318782A5E
:1002500088310435283E8200782A9530462A973026
:100260004A2A98304E2A9A30F7299C30FF299D302F
:10027000032A9F30072AA0300B2AA230132AA3306A
:100280002A2A5408003A03194629782A5308D03EEE
:10029000031C782A84000A3004020318782A883163
:1002A00004353C3E8200782AA5302E2AA630322A18
:1002B000A830362AAA303A2AAB303E2AAD30422A3C
:1002C000AE30462AB0304A2AB1304E2AB330F72930
:1002D0005408003A03196D29782A5308D03E031CAC
:1002E000782A84000A3004020318782A88310435F9
:1002F000503E8200782AB530FF29B630032AB83044
:10030000072AB9300B2ABB30132ABC302A2ABE3048
:100310002E2ABF30322AC130362AC3303A2A540836
:10032000003A03199429782A5308D03E031C782AEE
:1003300084000A3004020318782A88310435643EA8
:100340008200782AC4303E2AC630422AC730462A64
:10035000C9304A2ACA304E2ACC30F729CE30FF297C
:10036000CF30032AD130072AD2300B2A5408003A62
:100370000319BB29782A5308D03E031C782A84002D
:100380000A3004020318782A88310435783E820046
:10039000782AD430132AD5302A2AD7302E2AD830BA
:1003A000322ADA30362ADC303A2ADD303E2ADF3093
:1003B000422AE030462AE2304A2A5408003A031919
:1003C000E229782A5308D03E031C782A84000A3098
:1003D00004020318782A883104358C3E8200782A7A
:1003E000E3304E2AE4309700A830502AE5309700D9
:1003F0007030502AE63097003830502AE7309700A6
:100400009601512AE83097009030502AEA30970040
:100410002030502AEB309700B030502AEC30970053
:100420007830502AED3097004030502A5408003A76
:1004300003191B2A782A5308D03E031C782A84000B
:100440000A3004020318782A88310435A03E82005D
:10045000782AEE309700D030502AF0309700603084
:10046000502AF1309700F030502AF3309700803056
:10047000502AF53097001030502AF6309700A030FF
:10048000502AF83097003030502AF9309700C030A9
:10049000502AFB3097005030502AFC309700E03053
:1004A00096001814782A5408003A0319582A782A12
:1004B0005308D03E031C782A84000A300402031833
:1004C000782A88310435B43E8200782A5608003AEA
:1004D00003196B2A782A5508D03E031C782A840019
:1004E0000A3004020318782A88310435C83E820095
:1004F00020001111131E8E2C1312210060036104C1
:10050000031D8C2C2000570358040319792C8C2CC4
:100510007B30502C7C30552C7D3028009200883068
:10052000622C7F30280092001830622C8030F12B32
:100530008130F62B8330002C833028009200C830A5
:10054000622CC22A8530280092005830622C20008C
:100550005208003A0319AD2A8C2C5108D03E031CD6
:100560008C2C84000A30040203188C2C883104354A
:10057000DC3E82008C2C86300A2C863028009200CB
:10058000E830622C87300F2C8830142C8930192CDD
:100590008A30280092000830622C8A30322C8B304E
:1005A000280092009830622C8C30372C8D30280037
:1005B00092002830622C20005208003A0319E12AE8
:1005C0008C2C5108D03E031C8C2C84000A30040271
:1005D00003188C2C89310435003E82008C2C8D3020
:1005E0003C2C8E3028009200B830622C8F30412C89
:1005F0009030280092004830622C9130462C913087
:1006000028009200D830622C92304B2C9330280076
:1006100092006830622C9430502C94302800920064
:10062000F830622C20005208003A0319182B8C2C49
:100630005108D03E031C8C2C84000A30040203189D
:100640008C2C89310435143E82008C2C9530552C2D
:1006500097305A2C98305F2C9A30F62B9C30002C17
:100660009D30052C9F300A2CA0300F2CA230192C65
:10067000A330322C20005208003A0319402B8C2C56
:100680005108D03E031C8C2C84000A30040203184D
:100690008C2C89310435283E82008C2CA530372CD7
:1006A000A6303C2CA830412CAA30462CAB304B2C29
:1006B000AD30502CAE30552CB0305A2CB1305F2CB0
:1006C000B330F62B20005208003A0319682B8C2C0B
:1006D0005108D03E031C8C2C84000A3004020318FD
:1006E0008C2C893104353C3E82008C2CB530002C9A
:1006F000B630052CB8300A2CB9300F2CBB30192C71
:10070000BC30322CBE30372CBF303C2CC130412C99
:10071000C330462C20005208003A0319902B8C2C31
:100720005108D03E031C8C2C84000A3004020318AC
:100730008C2C89310435503E82008C2CC4304B2CDB
:10074000C630502CC730552CC9305A2CCA305F2CBB
:10075000CC30F62BCE30002CCF30052CD1300A2CEB
:10076000D2300F2C20005208003A0319B82B8C2CE1
:100770005108D03E031C8C2C84000A30040203185C
:100780008C2C89310435643E82008C2CD430192C99
:10079000D530322CD730372CD8303C2CDA30412CA5
:1007A000DC30462CDD304B2CDF30502CE030552C2B
:1007B000E2305A2C20005208003A0319E02B8C2C0E
:1007C0005108D03E031C8C2C84000A30040203180C
:1007D0008C2C89310435783E82008C2CE3305F2CE0
:1007E000E43028009200A830622CE5302800920006
:1007F0007030622CE630280092003830622CE730EE
:10080000280092009101632CE8302800920090307B
:10081000622CEA30280092002030622CEB30280055
:100820009200B030622CEC30280092007830622CBC
:10083000ED30280092004030622C20005208003A2F
:100840000319232C8C2C5108D03E031C8C2C8400C3
:100850000A30040203188C2C893104358C3E820046
:100860008C2CEE3028009200D030622CF030280022
:1008700092006030622CF13028009200F030622C3F
:10088000F330280092008030622CF530280092006E
:100890001030622CF63028009200A030622CF83024
:1008A000280092003030622CF93028009200C030CD
:1008B000622CFB30280092005030622CFC30280063
:1008C0009200E030910013148C2C20005208003A62
:1008D00003196B2C8C2C5108D03E031C8C2C8400EB
:1008E0000A30040203188C2C89310435A03E8200A2
:1008F0008C2C21006B08003A03197F2C8C2C6A0881
:10090000D03E031C8C2C84000A30040203188C2C6B
:1009100089310435B43E8200200013127108FF00B3
:100920007E1009008431942C803102208431DF0054
:10093000803103208431E0008B3084008B308500CF
:10094000A0308600003087003E308A312622843174
:10095000D130840087308500203086000130870048
:1009600024308A3126228431C93084008B308500BE
:10097000A03086000130870040308A312622843141
:10098000FB0145308400003085001A308A312C226A
:100990008431DE3084000030850010308A312C2212
:1009A0007E1020008C31092C2000B400BB01BC015A
:1009B000BD01BE01B901BA015430260603194F2FFB
:1009C000AE01AF012708D03EBD00FF300318003054
:1009D000BE003408AC002C08B7002608AC002C0878
:1009E000B800373087316627843179082000BA0093
:1009F0007808B9002808AC002C08B5002908AC001C
:100A00002C08B600353087316627843179082000FC
:100A1000AF007808AE002A08D03EB000FF300318BF
:100A20000030B1003A08AD003908AC00AC35AD0D6E
:100A30002C08FF3EB200FF302D3DB3003235A03E02
:100A40008600013087003008C03F3108C13F3A08B6
:100A5000AD003908AC00AC35AD0DAC35AD0D2C0892
:100A6000FD3EBB00FF302D3DBC004730AC003B08D5
:100A7000C43E860087012C0881000130BB0700308E
:100A8000BC3D2708AC003B08C43E860087012C080B
:100A900081000130BB070030BC3D3408AC003B088E
:100AA000C43E860087012C0881000130BB0700305E
:100AB000BC3D2608AC003B08C43E860087012C08DC
:100AC0008100FD30BB07FF30BC3D31302B06031DDC
:100AD0006E2D3B08C43E8A31DF2284312000DF01C5
:100AE000E0014F2F3D1C772D25000C14792D25009A
:100AF0000C1020003E08CE003D08CD0008003D1C33
:100B0000842D25008C14862D25008C1020003E0895
:100B1000CC003D08CB0008003E08CE003D08CD00CB
:100B2000C32E901005302000AD000F30AC00F13026
:100B3000890B982DAC0B982DAD0B982D2000101122
:100B400005302000AD000F30AC00F130890BA62D30
:100B5000AC0BA62DAD0BA62D2000101205302000E9
:100B6000AD000F30AC00F130890BB42DAC0BB42DBF
:100B7000AD0BB42D0800303020002806031DF72DE2
:100B800005302000AD000F30AC00F130890BC62DD0
:100B9000AC0BC62DAD0BC62D2000901005302000EB
:100BA000AD000F30AC00F130890BD42DAC0BD42D3F
:100BB000AD0BD42D2000101105302000AD000F30FA
:100BC000AC00F130890BE22DAC0BE22DAD0BE22D28
:100BD0002000101205302000AD000F30AC00F130C5
:100BE000890BF02DAC0BF02DAD0BF02D0800323041
:100BF00020002806031D262E901005302000AD0091
:100C00000F30AC00F130890B032EAC0B032EAD0B73
:100C1000032E2000101205302000AD000F30AC0074
:100C2000F130890B112EAC0B112EAD0B112E2000C3
:100C3000101505302000AD000F30AC00F130890BED
:100C40001F2EAC0B1F2EAD0B1F2E080035302000C1
:100C50002806031D552E101105302000AD000F3061
:100C6000AC00F130890B322EAC0B322EAD0B322E94
:100C70002000101205302000AD000F30AC00F13024
:100C8000890B402EAC0B402EAD0B402E20001016D1
:100C900005302000AD000F30AC00F130890B4E2E36
:100CA000AC0B4E2EAD0B4E2E080037302000280620
:100CB000031D842E901005302000AD000F30AC00D5
:100CC000F130890B612EAC0B612EAD0B612E200033
:100CD000101505302000AD000F30AC00F130890B4D
:100CE0006F2EAC0B6F2EAD0B6F2E20001016053043
:100CF0002000AD000F30AC00F130890B7D2EAC0B25
:100D00007D2EAD0B7D2E0800393020002806031DF6
:100D10000800101405302000AD000F30AC00F13099
:100D2000890B902EAC0B902EAD0B902E2000101145
:100D300005302000AD000F30AC00F130890B9E2E45
:100D4000AC0B9E2EAD0B9E2E200010120930200001
:100D5000AD001E30AC00E430890BAC2EAC0BAC2ED9
:100D6000AD0BAC2E00002000901409302000AD0027
:100D70001E30AC00E430890BBB2EAC0BBB2EAD0B90
:100D8000BB2E0000080020003E08003A0319C92EBF
:100D9000652F3D08003A0319912D013A0319BB2D27
:100DA000652F08003E082100E30020003D082100D7
:100DB000E20020003D083E04031DEB2E210011112E
:100DC00020003D18E62E20008C15E82E20008C1106
:100DD000D901DA01082F3D033E04031D082F21002D
:100DE000111520002808AC002C08DE000130D900C5
:100DF0000030DA002808AC00AD012C08D5002D0821
:100E0000D6002908AC00AD012C08D3002D08D40071
:100E10003E08C8003D08C70008003E082100E10068
:100E200020003D082100E00020003D083E04031D95
:100E3000292F2800131017112100131220003D182C
:100E4000242F20009016262F20009012D701D801C1
:100E50004A2F3D033E04031D4A2F21001316200094
:100E60002808AC002C08DD000130D7000030D80085
:100E70002808AC00AD012C082100EA0020002D0854
:100E80002100EB0020002908AC00AD012C08D100A6
:100E90002D08D2003E08C6003D08C50008003A08EB
:100EA000003A0319542F652F3908013A0319722D9E
:100EB000033A03197F2D013A03198C2D073A0319C0
:100EC000D22E013A03190D2F652F08002000A5002E
:100ED00025088600870120300106031D742F01308C
:100EE000A0002008A507682F250886008701093083
:100EF000010603196F2FA301A401A2012508860092
:100F000087012D300106031D8A2F0130A000200823
:100F1000A207912F2508860087012B300106031DAB
:100F2000952F0130A0002008A5072508860087011D
:100F300001088931C8218731031CBC2F20002408F7
:100F4000F3002308F2000A30F4000030F5008A3183
:100F5000F8228731200025088600870101087207E2
:100F6000A00073080318730AA1002008D03EA30054
:100F7000FF30213DA400912F200022080319CC2F1F
:100F80002309A0002409A100A00A0319A10A20082E
:100F9000F8002108F90008002408F9002308F800E7
:100FA00008002434003400340034003400340034A9
:100FB0000034003400340034003400340034003491
:100FC0000034003400340034003400340034003481
:100FD0000034003400340034003400340034003471
:100FE00000340034003400340034200098019901AA
:100FF000970196011110210011148B170B1708008F
:1010000080319F288031A1288031A3288031A728F2
:101010008031AB288031AD288031AF288031B128B4
:101020008031B5288031B6288031CD288031CF2855
:101030008031D3288031D5288031D7288031D928F4
:101040008031DD288031DF288031E3288031E528B8
:101050008031FC288031FE28813102298131042928
:101060008131082981310A2981310E2981311029E4
:10107000813114298131162981312D2981312F297E
:101080008131312981313329813135298131372924
:101090008131392981313B2981313D2981313F29F4
:1010A00081315429813156298131582981315A2978
:1010B00081315C2981315E29813160298131622948
:1010C000813164298131662981317B2981317D29F2
:1010D00081317F298131812981318329813185299C
:1010E000813187298131892981318B2981318D296C
:1010F0008131A2298131A4298131A6298131A829F0
:101100008131AA298131AC298131AE298131B029BF
:101110008131B2298131B4298131C9298131CB2969
:101120008131CD298131CF298131D1298131D32913
:101130008131D5298131D7298131D9298131DB29E3
:101140008131F0298131F2298131F6298131FA2961
:101150008131FE298231022A8231062A82310A2A0D
:1011600082310E2A8231122A8231292A82312D2A95
:101170008231312A8231352A8231392A82313D2A1F
:101180008231412A8231452A8231492A82314D2ACF
:101190008031BA288031E92881311A2981314129E9
:1011A0008131682981318F298131B6298131DD2949
:1011B0008231162A8231532A8231882A82318A2A40
:1011C00082318C2A8231912A8231962A8231982A60
:1011D00082319A2A82319C2A8231A12A8231A22A22
:101200008231BB2A8231BD2A8231C22A8231C42A6C
:101210008231C62A8231C82A8231CD2A8231CF2A30
:101220008231D42A8231D62A8231EF2A8231F12AC0
:101230008231F62A8231F82A8231FD2A8231FF2A50
:101240008331042B8331062B83310B2B83310D2B00
:101250008331262B8331282B83312A2B83312C2B6E
:1012600083312E2B8331302B8331322B8331342B3E
:101270008331362B8331382B83314E2B8331502BE6
:101280008331522B8331542B8331562B8331582B8E
:1012900083315A2B83315C2B83315E2B8331602B5E
:1012A0008331762B8331782B83317A2B83317C2BDE
:1012B00083317E2B8331802B8331822B8331842BAE
:1012C0008331862B8331882B83319E2B8331A02B56
:1012D0008331A22B8331A42B8331A62B8331A82BFE
:1012E0008331AA2B8331AC2B8331AE2B8331B02BCE
:1012F0008331C62B8331C82B8331CA2B8331CC2B4E
:101300008331CE2B8331D02B8331D22B8331D42B1D
:101310008331D62B8331D82B8331EE2B8331F02BC5
:101320008331F52B8331FA2B8331FF2B8431042C4D
:101330008431092C84310E2C8431132C8431182CE7
:101340008431312C8431362C84313B2C8431402C37
:101350008431452C84314A2C84314F2C8431542CD7
:101360008431592C84315E2C8231A72A8231DB2AC8
:101370008331122B83313A2B8331622B83318A2BB9
:101380008331B22B8331DA2B84311D2C8431652CCF
:10139000F300F2013A3073020318D429303073029B
:1013A000031CD429F201F20A720C08000430250053
:1013B00093009201910120001111210011158B174A
:1013C0000B17080028009A019B0199019801200041
:1013D00013112100131508002800930194019201B4
:1013E0009101200013102100131408000830200080
:1013F0009C009A019110210091148B170B17080083
:1014000084302C009C009B019A01200014132100C1
:1014100014130800843026009300910192012000EB
:101420001312210013120800083028009E009C01AE
:101430002000931121009315080008302800970020
:10144000950120009310210093140800FE00120063
:101450001E00FE0B272A0034640080010131890B35
:041460002D2A0034FD
:101592002100911211120A3023009F0090309D0009
:1015A20024309E00A0309B0001309C008B170B174B
:1015B2002100911623009E169D170800F500F301E5
:1015C200F4010430730674040319080023009E1CFE
:1015D200E72A75088600870101089A000130F200A7
:1015E2007208F5070130F3070030F43DE22AF601F4
:1015F200F701721C002B7408F6077508F73D0130DD
:10160200F435F50D890B012B0130F336F20C890B01
:10161200062B72087304031DFA2A7708F300760872
:10162200F20008008A31C9228B318931D6218B31EF
:101632008A310A228B318A3100228B318731F52798
:101642008B318931EC218B318931F6218B318A3111
:101652001D228B318931E2218B318A31142208001B
:1016620028008D0126000D1429008D0128008C010F
:1016720026000C108C100C158C158C168C1724005F
:1016820090012300900121009015901210109010EB
:101692001011101223008C0121000C118C118C16D8
:1016A2000E150E138E170800F901FA01F701F80161
:1016B2007308FA007208F9007A08803AF600750891
:1016C200803A7602031D672B740879020318872B70
:1016D2007908A03E860087010108F6007708203EBF
:1016E200860001308700760881000130F70700305C
:1016F200F83D2330F6007908A03E8600870176087F
:1017020081000130F9070030FA3D5D2B2000CF0146
:10171200D001080061340034003400340034003455
:101722000034003400340034003400340034003417
:101732000034003400340034003400340034003407
:1017420000340034003400340034003400340034F7
:101752000034003400340034003400345434303463
:101762003034303430343034303430343034303457
:101772003034303430343034303430343034303447
:1017820030343034303430340034003400340034F7
:101792000034903400340034003400340034003417
:1017A2000034003400340034003400340034003497
:1017B2000034003400340034003400340034003487
:1017C2000034003400340034003400340034003477
:1017D2000034003400340034003400340034003467
:1017E2000034003400340034003400340034003457
:1017F2000034003400340034003400340034003447
:101802000034003400340034003400340034003436
:1018120029302000C0009630BF007F30890B0F2C8A
:10182200BF0B0F2CC00B0F2C2200C401C501C60137
:10183200C701CC01CD01C801C901CA01CB01CE014A
:10184200CF018B3131238C318B3113238C31250025
:101852000C108C1020008C1590160130CD00003039
:10186200CE000130CB000030CC000130C900003086
:10187200CA000130C7000030C8000130C500003086
:10188200C60010149010101110122530BF003F082E
:101892002100C40040302000BF003F082100D900D1
:1018A200210064036504031D9C2DE401E50122006F
:1018B200CC01CD01CE01CF01253021002006031D30
:1018C200FC2C25302106031DFC2C40302E06031D66
:1018D200FC2C40302F06031DFC2C2200D201D30128
:1018E2005308803A2000BF0080303F02031D7C2C49
:1018F2001030220052020318532D22005208A03E3B
:101902008600870125300106031D9D2C5208013EE9
:10191200A03E8600870125300106031D9D2C4C0840
:101922004D04031D9D2C5308C5005208C40001300C
:10193200CC000030CD00F62C5208A03E8600870174
:1019420025300106031DB72C5208013EA03E860039
:10195200870125300106031DB72C4C034D04031DDE
:10196200B72C5308C7005208C600F62C5208A03EF6
:101972008600870140300106031DD62C5208013E25
:10198200A03E8600870140300106031DD62C4E087A
:101992004F04031DD62C5308C9005208C800013059
:1019A200CE000030CF000130F12C22005208A03EC0
:1019B2008600870140300106031DF62C5208013EC5
:1019C200A03E8600870140300106031DF62C4E031F
:1019D2004F04031DF62C5308CB005208CA000230F4
:1019E2002000CF000030D000532D01302200D2075A
:1019F2000030D33D712C34302000BF00F130890B10
:101A0200002DBF0B002D0032503023009A0006300B
:101A12002000BF003030890B0C2DBF0B0C2D0000B5
:101A22004B3023009A0006302000BF003030890B73
:101A3200182DBF0B182D00002000DB01DC01230054
:101A42009D139D172200D001D1015108803A200038
:101A5200BF0080303F02031D312D0F3022005002A3
:101A62000318502D23302000BF0022005008A03E52
:101A72008600870120003F08810001302200D00744
:101A82000030D13D5108803A2000BF0080303F0233
:101A9200031D4E2D0F3022005002031C332D200057
:101AA200CF01D00120004F035004031D612D2200FD
:101AB2004508F3004408F2004908F50048086F2D74
:101AC200023020004F065004031D9C2D22004708BF
:101AD200F3004608F2004B08F5004A08F4008B3187
:101AE20055238C31220023082000BF003F08A600A6
:101AF200220024082000C0004008A7002200250878
:101B02002000C1004108A800220026082000C200CF
:101B12004208A900220027082000C3004308AA00A7
:101B2200220028082000C4004408AB00220022083A
:101B32008431D4248C31230022082304031DD22DA6
:101B420020008C1AD22D4D084E04031DD22D5F03A6
:101B52006004031DC92D5230BF003F082100C5009B
:101B620030302000BF003F082100C6003030200086
:101B7200BF003F082100C70031302000BF003F08EE
:101B82002100C800C5308A31DF228C3125000C10BB
:101B920001302000CD000030CE000130DF000030E7
:101BA200E000230022082304031D062E20008C1EC1
:101BB200062E4D034E04031D062E5F036004031D13
:101BC200FF2D5230BF003F082100C50031302000F8
:101BD200BF003F082100C60030302000BF003F0890
:101BE2002100C70031302000BF003F082100C8009B
:101BF200C5308A31DF228C3125000C142000CD0142
:101C0200CE010130DF000030E00023002608270467
:101C1200031D3D2E25000C193D2E20004B084C04BF
:101C2200031D3D2E5F036004031D342E5230BF009E
:101C32003F082100C90030302000BF003F082100CA
:101C4200CA0030302000BF003F082100CB003230F4
:101C52002000BF003F082100CC00C9308A31DF22BA
:101C62008C3125008C1001302000CB000030CC00DC
:101C72000130DF000030E000230026082704031DA6
:101C8200722E25000C1D722E20004B034C04031DE6
:101C9200722E5F036004031D6B2E5230BF003F089B
:101CA2002100C90031302000BF003F082100CA00D6
:101CB20030302000BF003F082100CB00323020002E
:101CC200BF003F082100CC00C9308A31DF228C31AD
:101CD20025008C142000CB01CC010130DF00003044
:101CE200E00023002A082B04031DEB2E25008C198B
:101CF200EB2E200049084A04031DEB2E5F0360040B
:101D0200031DE22E5230BF003F082100CD003030CB
:101D12002000BF003F082100CE0030302000BF006D
:101D22003F082100CF0033302000BF003F082100D0
:101D3200D000CD308A31DF228C3105302000C00046
:101D42000F30BF00F130890BA42EBF0BA42EC00BA5
:101D5200A42E2000101405302000C0000F30BF0058
:101D6200F130890BB22EBF0BB22EC00BB22E200067
:101D7200901005302000C0000F30BF00F130890BF9
:101D8200C02EBF0BC02EC00BC02E2000101105307C
:101D92002000C0000F30BF00F130890BCE2EBF0BE8
:101DA200CE2EC00BCE2E2000101205302000C00017
:101DB2000F30BF00F130890BDC2EBF0BDC2EC00BC5
:101DC200DC2E01302000C9000030CA000130DF00E3
:101DD2000030E00023002A082B04031D1F2F2500DA
:101DE2008C1D1F2F200049034A04031D1F2F5F0370
:101DF2006004031D192F5230BF003F082100CD009F
:101E020031302000BF003F082100CE0030302000DA
:101E1200BF003F082100CF0033302000BF003F0841
:101E22002100D000CD308A31DF228C312000101009
:101E3200C901CA010130DF000030E00023002E0892
:101E42002F04031D582F25008C1A582F20004708F5
:101E52004804031D582F5F036004031D502F5230A6
:101E6200BF003F082100D10030302000BF003F08F2
:101E72002100D20030302000BF003F082100D300F3
:101E820034302000BF003F082100D400D1308A3115
:101E9200DF228C312100E201E30120008C150130A8
:101EA200C7000030C8000130DF000030E00023002E
:101EB2002E082F04031D8F2F25008C1E8F2F20002C
:101EC20047034804031D8F2F5F036004031D892FFE
:101ED2005230BF003F082100D10031302000BF0046
:101EE2003F082100D20030302000BF003F0821000F
:101EF200D30034302000BF003F082100D400D1308D
:101F02008A31DF228C312100E201E30120008C11B1
:101F1200C701C8010130DF000030E00023003208B1
:101F22003304031DC82F25008C1BC82F2000450831
:101F32004604031DC82F5F036004031DC02F5230E7
:101F4200BF003F082100D50030302000BF003F080D
:101F52002100D60030302000BF003F082100D7000A
:101F620035302000BF003F082100D800D5308A312B
:101F7200DF228C312100E001E101200090160130C6
:101F8200C5000030C6000130DF000030E000230051
:101F920032083304031D512C25008C1F512C2000C4
:101FA20045034604031D512C5F036004031DF92FF2
:101FB2005230BF003F082100D50031302000BF0061
:101FC2003F082100D60030302000BF003F0821002A
:101FD200D70035302000BF003F082100D800D5309F
:101FE2008A31DF228C312100E001E10120009012D0
:101FF200C501C6010130DF000030E000512C303451
:1020020030343034303430343034303430343034AE
:10201200303430343034303430343034303430349E
:10202200303430343034303430343034303430348E
:1020320030343034303430343034303430340034AE
:020000040001F9
:04000E00A2C9FFDDA7
:00000001FF
