:0400000084318A2C91
:100008007E14803120007F08F100911E59282300BA
:100018009D1C19281D121D162000111E102846307F
:1000280023009A002000111E162823001908F0004A
:1000380020005B08443E860001308700700881007C
:10004800253022004406031D422801302000DB072A
:100058000030DC3D5C08803AF00080307002031DFF
:10006800372810305B02031C59282000DB01DC0113
:100078000130CD000030CE009112592823001D1206
:100088001D162000DB01DC01111E48284630230024
:100098009A002000111E4D28523023009A0020009B
:1000A800111E5328523023009A002100911C622807
:1000B8002000911C622891100C151C112100111CA4
:1000C8006E282000111C6E28111018100C119F307A
:1000D8009B001C152100931C78282000931C78286D
:1000E80093108C15280017112100131C8528200057
:1000F800131C852813108C119F30280096001715A3
:100108001310200011198A28131E862C111D732A1A
:100118001111210056035704031D712A20005903A9
:100128005A0403195F2A712A7B303B2A7C303F2A04
:100138007D3097008830492A7F3097001830492A47
:100148008030EC298130F0298330F82983309700FA
:10015800C830492ACC28853097005830492A540895
:10016800003A0319B828712A5308D03E031C712A93
:1001780084000A3004020318712A88310435003ECD
:100188008200712A8630002A86309700E830492A92
:100198008730042A8830082A89300C2A8A30970048
:1001A8000830492A8A30232A8B3097009830492A08
:1001B8008C30272A8D3097002830492A5408003A75
:1001C8000319E728712A5308D03E031C712A8400BA
:1001D8000A3004020318712A88310435143E82005B
:1001E800712A8D302B2A8E309700B830492A8F30EB
:1001F8002F2A903097004830492A9130332A91307D
:100208009700D830492A9230372A933097006830BF
:10021800492A94303B2A94309700F830492A5408E8
:10022800003A03191829712A5308D03E031C712A71
:1002380084000A3004020318712A88310435283EE4
:100248008200712A95303F2A9730432A9830472AEE
:100258009A30F0299C30F8299D30FC299F30002ADB
:10026800A030042AA2300C2AA330232A5408003ACA
:1002780003193F29712A5308D03E031C712A8400B0
:100288000A3004020318712A883104353C3E820082
:10029800712AA530272AA6302B2AA8302F2AAA305F
:1002A800332AAB30372AAD303B2AAE303F2AB03044
:1002B800432AB130472AB330F0295408003A0319C9
:1002C8006629712A5308D03E031C712A84000A301B
:1002D80004020318712A88310435503E8200712ABD
:1002E800B530F829B630FC29B830002AB930042ACC
:1002F800BB300C2ABC30232ABE30272ABF302B2A19
:10030800C1302F2AC330332A5408003A03198D29E3
:10031800712A5308D03E031C712A84000A30040253
:100328000318712A88310435643E8200712AC4306A
:10033800372AC6303B2AC7303F2AC930432ACA3039
:10034800472ACC30F029CE30F829CF30FC29D130DB
:10035800002AD230042A5408003A0319B429712A11
:100368005308D03E031C712A84000A300402031883
:10037800712A88310435783E8200712AD4300C2ADB
:10038800D530232AD730272AD8302B2ADA302F2AFB
:10039800DC30332ADD30372ADF303B2AE0303F2A91
:1003A800E230432A5408003A0319DB29712A53081A
:1003B800D03E031C712A84000A3004020318712AF3
:1003C800883104358C3E8200712AE330472AE430B4
:1003D8009700A830492AE53097007030492AE6305E
:1003E80097003830492AE730970096014A2AE830C2
:1003F80097009030492AEA3097002030492AEB309C
:100408009700B030492AEC3097007830492AED300F
:1004180097004030492A5408003A0319142A712ACF
:100428005308D03E031C712A84000A3004020318C2
:10043800712A88310435A03E8200712AEE30970077
:10044800D030492AF03097006030492AF1309700BF
:10045800F030492AF33097008030492AF530970068
:100468001030492AF6309700A030492AF830970012
:100478003030492AF9309700C030492AFB309700BC
:100488005030492AFC309700E03096001814712A41
:100498005408003A0319512A712A5308D03E031C04
:1004A800712A84000A3004020318712A883104353D
:1004B800B43E8200712A5608003A0319642A712A48
:1004C8005508D03E031C712A84000A300402031820
:1004D800712A88310435C83E820020001111131E8C
:1004E800862C1312210054035504031D842C20006C
:1004F800570358040319722C842C7B30492C7C3008
:100508004E2C7D302800920088305B2C7F302800EC
:10051800920018305B2C8030EA2B8130EF2B83302F
:10052800F92B833028009200C8305B2CBB2A853019
:100538002800920058305B2C20005008003A03191C
:10054800A62A842C4F08D03E031C842C84000A3031
:1005580004020318842C88310435DC3E8200842C84
:100568008630032C863028009200E8305B2C8730D8
:10057800082C88300D2C8930122C8A3028009200E3
:1005880008305B2C8A302B2C8B3028009200983056
:100598005B2C8C30302C8D302800920028305B2C5E
:1005A80020005008003A0319DA2A842C4F08D03E5C
:1005B800031C842C84000A3004020318842C89311B
:1005C8000435003E8200842C8D30352C8E30280076
:1005D8009200B8305B2C8F303A2C90302800920073
:1005E80048305B2C91303F2C913028009200D83055
:1005F8005B2C9230442C93302800920068305B2C9E
:100608009430492C943028009200F8305B2C20005C
:100618005008003A0319112B842C4F08D03E031CB4
:10062800842C84000A3004020318842C8931043590
:10063800143E8200842C95304E2C9730532C9830E1
:10064800582C9A30EF2B9C30F92B9D30FE2B9F3085
:10065800032CA030082CA230122CA3302B2C200005
:100668005008003A0319392B842C4F08D03E031C3C
:10067800842C84000A3004020318842C8931043540
:10068800283E8200842CA530302CA630352CA8308A
:100698003A2CAA303F2CAB30442CAD30492CAE302C
:1006A8004E2CB030532CB130582CB330EF2B2000E7
:1006B8005008003A0319612B842C4F08D03E031CC4
:1006C800842C84000A3004020318842C89310435F0
:1006D8003C3E8200842CB530F92BB630FE2BB83066
:1006E800032CB930082CBB30122CBC302B2CBE305C
:1006F800302CBF30352CC1303A2CC3303F2C200071
:100708005008003A0319892B842C4F08D03E031C4B
:10071800842C84000A3004020318842C893104359F
:10072800503E8200842CC430442CC630492CC7303B
:100738004E2CC930532CCA30582CCC30EF2BCE302D
:10074800F92BCF30FE2BD130032CD230082C2000CF
:100758005008003A0319B12B842C4F08D03E031CD3
:10076800842C84000A3004020318842C893104354F
:10077800643E8200842CD430122CD5302B2CD730F8
:10078800302CD830352CDA303A2CDC303F2CDD30A8
:10079800442CDF30492CE0304E2CE230532C200022
:1007A8005008003A0319D92B842C4F08D03E031C5B
:1007B800842C84000A3004020318842C89310435FF
:1007C800783E8200842CE330582CE43028009200D4
:1007D800A8305B2CE5302800920070305B2CE630A6
:1007E8002800920038305B2CE730280092009101F5
:1007F8005C2CE8302800920090305B2CEA3028000E
:10080800920020305B2CEB3028009200B0305B2C3B
:10081800EC302800920078305B2CED3028009200F4
:1008280040305B2C20005008003A03191C2C842C03
:100838004F08D03E031C842C84000A30040203189D
:10084800842C893104358C3E8200842CEE302800BB
:100858009200D0305B2CF0302800920060305B2C86
:10086800F13028009200F0305B2CF3302800920021
:1008780080305B2CF5302800920010305B2CF6306D
:1008880028009200A0305B2CF8302800920030300D
:100898005B2CF93028009200C0305B2CFB3028001C
:1008A800920050305B2CFC3028009200E030910020
:1008B8001314842C20005008003A0319642C842C4B
:1008C8004F08D03E031C842C84000A30040203180D
:1008D800842C89310435A03E8200842C5208003AC9
:1008E8000319772C842C5108D03E031C842C8400D7
:1008F8000A3004020318842C89310435B43E82007E
:10090800200013127108FF007E10090084318C2C1E
:100918008731FC278431DF008731FD278431E000EF
:10092800FC3084008D308500A030860000308700C0
:100938002E308A3123228431A63084008730850006
:10094800203086000130870048308A3123228431E4
:10095800FB0145308400003085001A308A31292295
:100968008431CE3084000030850010308A3129224D
:100978007E1020008431C02C29302000C000963021
:10098800BF007F30890BC62CBF0BC62CC00BC62CF2
:100998002100DE01DF01E001E101E601E701E201FA
:1009A800E301E401E501E801E9018D31DC25843149
:1009B8008D31BE25843125000C1020008C150C15B6
:1009C8000130C9000030CA0001302100D0000030D9
:1009D800D10001302000C7000030C8000130C50038
:1009E8000030C60001302100CE000030CF00253095
:1009F8002000BF003F082100B40040302000BF00A5
:100A08003F082100C90020004D034E04031D5B2E42
:100A1800CD01CE012100E601E701E801E901253019
:100A280022004406031DBA2D25304506031DBA2DA4
:100A380040305206031DBA2D40305306031DBA2D0F
:100A48002100EC01ED016D08803A2000BF008030E4
:100A58003F02031D322D103021006C020318122EA4
:100A680021006C08443E86000130870025300106CD
:100A7800031D552D6C08013E443E86000130870059
:100A880025300106031D552D66086704031D552DE5
:100A98006D08DF006C08DE000130E6000030E7007A
:100AA800B42D6C08443E86000130870025300106CD
:100AB800031D712D6C08013E443E860001308700FD
:100AC80025300106031D712D66036704031D712D72
:100AD8006D08E1006C08E000B42D6C08443E860007
:100AE8000130870040300106031D922D6C08013E3D
:100AF800443E86000130870040300106031D922DD8
:100B080068086904031D922D6D08E3006C08E20073
:100B18000130E8000030E9000130AF2D21006C08F9
:100B2800443E86000130870040300106031DB42D85
:100B38006C08013E443E86000130870040300106C3
:100B4800031DB42D68036904031DB42D6D08E50069
:100B58006C08E40002302000CB000030CC00122EDC
:100B680001302100EC070030ED3D272D3430200006
:100B7800BF00F130890BBE2DBF0BBE2D00325030A7
:100B880023009A0006302000BF003030890BCA2DA0
:100B9800BF0BCA2D00004B3023009A0006302000FE
:100BA800BF003030890BD62DBF0BD62D000020009A
:100BB800DB01DC0123009D139D172100EA01EB01F5
:100BC8006B08803A2000BF0080303F02031DEF2DE4
:100BD8000F3021006A0203180F2E23302000BF00B7
:100BE80021006A08443E86000130870020003F0843
:100BF800810001302100EA070030EB3D6B08803AA4
:100C08002000BF0080303F02031D0D2E0F30210051
:100C18006A02031CF12D2000CB01CC0120004B03FC
:100C28004C04031D202E21005F08F3005E08F2002B
:100C38006308F50062082E2E023020004B064C0493
:100C4800031D5B2E21006108F3006008F2006508AF
:100C5800F5006408F4008E312A2684312200230826
:100C68002000BF003F08A600220024082000C00082
:100C78004008A700220025082000C1004108A8005C
:100C8800220026082000C2004208A90022002708E6
:100C98002000C3004308AA00220028082000C4003E
:100CA8004408AB00220022088E31CD268431210071
:100CB80022082304031D912E20008C1A912E490826
:100CC8004A04031D912E5F036004031D882E5230D1
:100CD800BF003F082100B50030302000BF003F08AA
:100CE8002100B60030302000BF003F082100B700C7
:100CF80031302000BF003F082100B800B5308D31E9
:100D08008A25843125000C1001302000C9000030EC
:100D1800CA000130DF000030E0002100220823046F
:100D2800031DC52E20008C1EC52E49034A04031D31
:100D3800C52E5F036004031DBE2E5230BF003F085E
:100D48002100B50031302000BF003F082100B60067
:100D580030302000BF003F082100B70031302000AC
:100D6800BF003F082100B800B5308D318A25843195
:100D780025000C142000C901CA010130DF00003031
:100D8800E000210026082704031DFE2E25008C19EB
:100D9800FE2E200047084804031DFE2E5F03600452
:100DA800031DF62E5230BF003F082100BD00303031
:100DB8002000BF003F082100BE0030302000BF00E7
:100DC8003F082100BF0032302000BF003F0821004B
:100DD800C000BD308D318A2584312100D601D7016C
:100DE80020000C150130C7000030C8000130DF00BA
:100DF8000030E000210026082704031D352F2500B8
:100E08008C1D352F200047034804031D352F5F0331
:100E18006004031D2F2F5230BF003F082100BD0082
:100E280031302000BF003F082100BE0030302000D4
:100E3800BF003F082100BF0032302000BF003F083C
:100E48002100C000BD308D318A2584312100D601B2
:100E5800D70120000C11C701C8010130DF000030A4
:100E6800E00021002A082B04031D6E2F25008C1A90
:100E78006E2F200045084604031D6E2F5F03600493
:100E8800031D662F5230BF003F082100C1003030DB
:100E98002000BF003F082100C20030302000BF0002
:100EA8003F082100C30033302000BF003F08210065
:100EB800C400C1308D318A2584312100D401D50187
:100EC80020008C150130C5000030C6000130DF005D
:100ED8000030E00021002A082B04031D072D2500FF
:100EE8008C1E072D200045034604031D072D5F03B4
:100EF8006004031D9F2F5230BF003F082100C1002E
:100F080031302000BF003F082100C20030302000EF
:100F1800BF003F082100C30033302000BF003F0856
:100F28002100C400C1308D318A2584312100D401CB
:100F3800D50120008C11C501C6010130DF00003049
:100F4800E000072D24340034003400340034003429
:100F580000340034003400340034003400340034E9
:100F680000340034003400340034003400340034D9
:100F780000340034003400340034003400340034C9
:100F88000034003400340034003400346134003458
:100F980000340034003400340034003400340034A9
:100FA8000034003400340034003400340034003499
:100FB8000034003400340034003400340034003489
:100FC8000034003400340034003400340034003479
:100FD80000340034F300F2013A3073020318FA2F98
:100FE80030307302031CFA2FF201F20A720C080067
:040FF800013400348C
:101000008031982880319A2880319C288031A0280E
:101010008031A4288031A6288031A8288031AA28D0
:101020008031AE288031AF288031C6288031C82871
:101030008031CC288031CE288031D0288031D22810
:101040008031D6288031D8288031DC288031DE28D4
:101050008031F5288031F7288031FB288031FD2848
:101060008131012981310329813107298131092900
:1010700081310D2981310F2981312629813128299A
:1010800081312A2981312C2981312E298131302940
:101090008131322981313429813136298131382910
:1010A00081314D2981314F29813151298131532994
:1010B00081315529813157298131592981315B2964
:1010C00081315D2981315F2981317429813176290E
:1010D0008131782981317A2981317C2981317E29B8
:1010E0008131802981318229813184298131862988
:1010F00081319B2981319D2981319F298131A1290C
:101100008131A3298131A5298131A7298131A929DB
:101110008131AB298131AD298131C2298131C42985
:101120008131C6298131C8298131CA298131CC292F
:101130008131CE298131D0298131D2298131D429FF
:101140008131E9298131EB298131EF298131F3297D
:101150008131F7298131FB298131FF298231032A2D
:101160008231072A82310B2A8231222A8231262AB1
:1011700082312A2A82312E2A8231322A8231362A3B
:1011800082313A2A82313E2A8231422A8231462AEB
:101190008031B3288031E2288131132981313A2905
:1011A00081316129813188298131AF298131D62965
:1011B00082310F2A82314C2A8231812A8231832A5C
:1011C0008231852A82318A2A82318F2A8231912A7C
:1011D0008231932A8231952A82319A2A82319B2A3E
:101200008231B42A8231B62A8231BB2A8231BD2A88
:101210008231BF2A8231C12A8231C62A8231C82A4C
:101220008231CD2A8231CF2A8231E82A8231EA2ADC
:101230008231EF2A8231F12A8231F62A8231F82A6C
:101240008231FD2A8231FF2A8331042B8331062B20
:1012500083311F2B8331212B8331232B8331252B8A
:101260008331272B8331292B83312B2B83312D2B5A
:1012700083312F2B8331312B8331472B8331492B02
:1012800083314B2B83314D2B83314F2B8331512BAA
:101290008331532B8331552B8331572B8331592B7A
:1012A00083316F2B8331712B8331732B8331752BFA
:1012B0008331772B8331792B83317B2B83317D2BCA
:1012C00083317F2B8331812B8331972B8331992B72
:1012D00083319B2B83319D2B83319F2B8331A12B1A
:1012E0008331A32B8331A52B8331A72B8331A92BEA
:1012F0008331BF2B8331C12B8331C32B8331C52B6A
:101300008331C72B8331C92B8331CB2B8331CD2B39
:101310008331CF2B8331D12B8331E72B8331E92BE1
:101320008331EE2B8331F32B8331F82B8331FD2B6B
:101330008431022C8431072C84310C2C8431112C03
:1013400084312A2C84312F2C8431342C8431392C53
:1013500084313E2C8431432C8431482C84314D2CF3
:101360008431522C8431572C8231A02A8231D42AE4
:1013700083310B2B8331332B83315B2B8331832BD5
:101380008331AB2B8331D32B8431162C84315E2CEB
:1013900004302500930092019101200011112100D9
:1013A00011158B170B170800200098019901970160
:1013B00096011110210011148B170B17080028003B
:1013C0009A019B0199019801200013112100131526
:1013D000080028009301940192019101200013104C
:1013E000210013140800083020009C009A0191107D
:1013F000210091148B170B17080084302C009C00DF
:101400009B019A012000141321001413080084305A
:101410002600930091019201200013122100131263
:101420000800083028009E009C0120009311210034
:1014300093150800083028009700950120009310AC
:10144000210093140800FE0012001E00FE0B242A47
:0E1450000034640080010131890B2A2A003427
:101AE8002100911211120A3023009F0090309D00AE
:101AF80024309E00A0309B0001309C008B170B17F0
:101B08002100911623009E169D170800F500F30189
:101B1800F4010430730674040319080023009E1CA2
:101B2800922D75088600870101089A000130F2009D
:101B38007208F5070130F3070030F43D8D2DF601EA
:101B4800F701721CAB2D7408F6077508F73D0130D4
:101B5800F435F50D890BAC2D0130F336F20C890BF9
:101B6800B12D72087304031DA52D7708F3007608BC
:101B7800F20008008D3174258D318931C8218D31ED
:101B88008A3107228D318931FD218D318931D42166
:101B98008D318931E9218D318931F3218D318A31B6
:101BA8001A228D318931DF218D318A3111220800C5
:101BB80028008D0126000D1429008D0128008C01B4
:101BC80026000C108C100C158C158C168C17240004
:101BD80090012300900121009015901223008C01A0
:101BE80021000C118C118C160E150E138E1708007F
:101BF80000349034003400340034003400340034AD
:101C0800003400340034003400340034003400342C
:101C18000034003400340034543430343034303438
:101C2800303430343034303430343034303430348C
:101C3800303430343034303430343034303430347C
:101C4800303430340034003400340034F901FA01FF
:101C5800F701F8017308FA007208F9007A08803A67
:101C6800F6007508803A7602031D3C2E7408790246
:101C780003185E2E7908443E86000130870001086B
:101C8800F6007708203E860001308700760881003C
:101C98000130F7070030F83D2330F6007908443E5C
:101CA800860001308700760881000130F90700308E
:101CB800FA3D322E2000CB01CC0108002000A500FF
:101CC80025088600870120300106031D702E01308B
:101CD800A0002008A507642E250886008701093082
:101CE800010603196B2EA301A401A2012508860091
:101CF80087012D300106031D862E0130A000200823
:101D0800A2078D2E2508860087012B300106031DAA
:101D1800912E0130A0002008A5072508860087011C
:101D280001088731EE278E31031CB82E20002408C5
:101D3800F3002308F2000A30F4000030F5008D317A
:101D4800A3258E3120002508860087010108720727
:101D5800A00073080318730AA1002008D03EA3004E
:101D6800FF30213DA4008D2E200022080319C82E23
:101D78002309A0002409A100A00A0319A10A200828
:101D8800F8002108F90008002408F9002308F800E1
:101D980008002000B400BB01BC01BD01BE01B901AF
:101DA800BA01543026060319EF2FAE01AF012708F8
:101DB800D03EBD00FF3003180030BE003408AC0030
:101DC8002C08B7002608AC002C08B80037308E3134
:101DD80062268E3179082000BA007808B9002808F0
:101DE800AC002C08B5002908AC002C08B60035302A
:101DF8008E3162268E3179082000AF007808AE0057
:101E08002A08D03EB000FF3003180030B1003A086D
:101E1800AD003908AC00AC35AD0D2C08FF3EB20062
:101E2800FF302D3DB3003235A03E860087013008D3
:101E3800C03F3108C13F3A08AD003908AC00AC35A5
:101E4800AD0DAC35AD0D2C08FD3EBB00FF302D3D72
:101E5800BC004730AC003B08B43E860087012C0824
:101E680081000130BB070030BC3D2708AC003B08AF
:101E7800B43E860087012C0881000130BB07003082
:101E8800BC3D3408AC003B08B43E860087012C08F2
:101E980081000130BB070030BC3D2608AC003B0880
:101EA800B43E860087012C088100FD30BB07FF3057
:101EB800BC3D31302B06031D662F3B08B43E8D31E7
:101EC8008A258E312000DF01E001EF2F3D1C6F2FA6
:101ED80025000C14712F25000C1020003E08CA00A4
:101EE8003D08C90008003E082100D70020003D0831
:101EF8002100D60020003D083E04031D922F1C112E
:101F080018102100111120003D188D2F20000C15EC
:101F18008F2F20000C11D901DA01AF2F3D033E04A9
:101F2800031DAF2F2100111520002808AC002C0834
:101F3800DE000130D9000030DA002808AC00AD011D
:101F48002C08D5002D08D6002908AC00AD012C08B6
:101F5800D3002D08D4003E08C8003D08C70008007B
:101F68003E082100D50020003D082100D4002000B3
:101F78003D083E04031DCD2F2100131220003D18FB
:101F8800C82F20008C15CA2F20008C11D701D8012A
:101F9800EA2F3D033E04031DEA2F210013162000FB
:101FA8002808AC002C08DD000130D7000030D8002C
:101FB8002808AC00AD012C08D1002D08D200290852
:101FC800AC00AD012C08CF002D08D0003E08C6009B
:101FD8003D08C50008003A08003A0319F42FFF2FFE
:101FE8003908013A03196A2F033A0319772F013A7E
:101FF8000319B42FFF2F0800303430343034303414
:1020080030343034303430343034303430340034D8
:020000040001F9
:04000E00A2C9FFDDA7
:00000001FF
