:100000008631C82E013400347E14803120007F08F0
:10001000F100911E5B2823009D1C19281D121D163E
:100020002000111E1028463023009A002000111EC7
:10003000162823001908F00020005B08443E8600C3
:100040000130870070088100253022004406031D1E
:10005000442801302000DB070030DC3D5C08803A9A
:10006000F00080307002031D372810305B02031C43
:100070005B282000DB01DC0101302100E4000030BE
:10008000E500200091125B2823001D121D162000A0
:10009000DB01DC01111E4A28463023009A002000B3
:1000A000111E4F28523023009A002000111E55289F
:1000B000523023009A002100911C69282000911CD5
:1000C000692823001A0803196128200091100C15D3
:1000D0001C112100111C75282000111C75281110FD
:1000E00018100C119F309B001C152100931C7F28B9
:1000F0002000931C7F2893108C15280017112100D5
:10010000131C8C282000131C8C2813108C119F307A
:1001100028009600171513102100931D9628200023
:10012000931D96289311901628001E112100131D6F
:10013000A3282000131DA328131190129F3028001C
:100140009D001E151A102000111D131AA928141F36
:10015000C42E111D9D2A1111210062036304031D89
:100160009B2A200059035A040319882A9B2A7B30B2
:10017000632A7C30672A7D3097008830712A7F306F
:1001800097001830712A8030132A8130172A833063
:100190001F2A83309700C830712AEC2885309700D9
:1001A0005830712A20005608003A0319D8289B2A93
:1001B0005508D03E031C9B2A84000A300402031811
:1001C0009B2A87310435EC3E82009B2A8630272A01
:1001D00086309700E830712A87302B2A88302F2A02
:1001E0008930332A8A3097000830712A8A304B2AA6
:1001F0008B3097009830712A8C304F2A8D309700C1
:100200002830712A20005608003A031908299B2A31
:100210005508D03E031C9B2A84000A3004020318B0
:100220009B2A88310435003E82009B2A8D30532A58
:100230008E309700B830712A8F30572A903097004F
:100240004830712A91305B2A91309700D830712A5A
:1002500092305F2A933097006830712A9430632A75
:1002600094309700F830712A20005608003A03199C
:100270003A299B2A5508D03E031C9B2A84000A3049
:10028000040203189B2A88310435143E82009B2AFD
:100290009530672A97306B2A98306F2A9A30172A40
:1002A0009C301F2A9D30232A9F30272AA0302B2ADA
:1002B000A230332AA3304B2A20005608003A0319F3
:1002C00062299B2A5508D03E031C9B2A84000A30D1
:1002D000040203189B2A88310435283E82009B2A99
:1002E000A5304F2AA630532AA830572AAA305B2AB5
:1002F000AB305F2AAD30632AAE30672AB0306B2A4C
:10030000B1306F2AB330172A20005608003A03197B
:100310008A299B2A5508D03E031C9B2A84000A3058
:10032000040203189B2A883104353C3E82009B2A34
:10033000B5301F2AB630232AB830272AB9302B2AE5
:10034000BB30332ABC304B2ABE304F2ABF30532A31
:10035000C130572AC3305B2A20005608003A0319DF
:10036000B2299B2A5508D03E031C9B2A84000A30E0
:10037000040203189B2A88310435503E82009B2AD0
:10038000C4305F2AC630632AC730672AC9306B2A57
:10039000CA306F2ACC30172ACE301F2ACF30232AFA
:1003A000D130272AD2302B2A20005608003A0319D0
:1003B000DA299B2A5508D03E031C9B2A84000A3068
:1003C000040203189B2A88310435643E82009B2A6C
:1003D000D430332AD5304B2AD7304F2AD830532A3D
:1003E000DA30572ADC305B2ADD305F2ADF30632ABF
:1003F000E030672AE2306B2A20005608003A0319E1
:10040000022A9B2A5508D03E031C9B2A84000A30EE
:10041000040203189B2A90310435003E82009B2A77
:10042000E3306F2AE4309700A830712AE530970056
:100430007030712AE63097003830712AE730970023
:100440009601722AE83097009030712AEA309700BE
:100450002030712AEB309700B030712AEC309700D1
:100460007830712AED3097004030712A200056080C
:10047000003A03193C2A9B2A5508D03E031C9B2AAC
:1004800084000A30040203189B2A90310435143E7C
:1004900082009B2AEE309700D030712AF03097000E
:1004A0006030712AF1309700F030712AF3309700F4
:1004B0008030712AF53097001030712AF63097009D
:1004C000A030712AF83097003030712AF930970047
:1004D000C030712AFB3097005030712AFC309700F1
:1004E000E030960018149B2A20005608003A0319A1
:1004F0007A2A9B2A5508D03E031C9B2A84000A3086
:10050000040203189B2A90310435283E82009B2A5E
:1005100021006B08003A03198E2A9B2A6A08D03EF4
:10052000031C9B2A84000A30040203189B2A903182
:1005300004353C3E820020001111131EB12C131211
:10054000210060036104031DAF2C200057035804F1
:1005500003199C2CAF2C7B30732C7C30782C7D3095
:10056000280092008830852C7F30280092001830B7
:10057000852C8030142C8130192C8330232C83302F
:1005800028009200C830852CE52A8530280092008A
:100590005830852C20005408003A0319D02AAF2C7B
:1005A0005308D03E031CAF2C84000A300402031809
:1005B000AF2C90310435503E8200AF2C86302D2C6C
:1005C000863028009200E830852C8730322C883025
:1005D000372C89303C2C8A30280092000830852C3A
:1005E0008A30552C8B30280092009830852C8C3026
:1005F0005A2C8D30280092002830852C2000540879
:10060000003A0319042BAF2C5308D03E031CAF2C27
:1006100084000A3004020318AF2C90310435643E84
:100620008200AF2C8D305F2C8E3028009200B830C5
:10063000852C8F30642C9030280092004830852C17
:100640009130692C913028009200D830852C92305E
:100650006E2C9330280092006830852C9430732CD7
:10066000943028009200F830852C20005408003A7D
:1006700003193B2BAF2C5308D03E031CAF2C840036
:100680000A3004020318AF2C90310435783E820002
:10069000AF2C9530782C97307D2C9830822C9A3066
:1006A000192C9C30232C9D30282C9F302D2CA030D1
:1006B000322CA2303C2CA330552C20005408003A98
:1006C0000319632BAF2C5308D03E031CAF2C8400BE
:1006D0000A3004020318AF2C903104358C3E82009E
:1006E000AF2CA5305A2CA6305F2CA830642CAA3031
:1006F000692CAB306E2CAD30732CAE30782CB03012
:100700007D2CB130822CB330192C20005408003AD3
:1007100003198B2BAF2C5308D03E031CAF2C840045
:100720000A3004020318AF2C90310435A03E820039
:10073000AF2CB530232CB630282CB8302D2CB93046
:10074000322CBB303C2CBC30552CBE305A2CBF3028
:100750005F2CC130642CC330692C20005408003A4F
:100760000319B32BAF2C5308D03E031CAF2C8400CD
:100770000A3004020318AF2C90310435B43E8200D5
:10078000AF2CC4306E2CC630732CC730782CC930D7
:100790007D2CCA30822CCC30192CCE30232CCF307B
:1007A000282CD1302D2CD230322C20005408003A85
:1007B0000319DB2BAF2C5308D03E031CAF2C840055
:1007C0000A3004020318AF2C90310435C83E820071
:1007D000AF2CD4303C2CD530552CD7305A2CD830B7
:1007E0005F2CDA30642CDC30692CDD306E2CDF308D
:1007F000732CE030782CE2307D2C20005408003A35
:100800000319032CAF2C5308D03E031CAF2C8400DB
:100810000A3004020318AF2C90310435DC3E82000C
:10082000AF2CE330822CE43028009200A830852CD5
:10083000E530280092007030852CE63028009200C8
:100840003830852CE730280092009101862CE83062
:10085000280092009030852CEA3028009200203049
:10086000852CEB3028009200B030852CEC3028002D
:1008700092007830852CED30280092004030852C95
:1008800020005408003A0319462CAF2C5308D03EE0
:10089000031CAF2C84000A3004020318AF2C9131E2
:1008A0000435003E8200AF2CEE3028009200D0309C
:1008B000852CF030280092006030852CF130280023
:1008C0009200F030852CF330280092008030852C87
:1008D000F530280092001030852CF6302800920068
:1008E000A030852CF830280092003030852CF9306B
:1008F00028009200C030852CFB3028009200503038
:10090000852CFC3028009200E03091001314AF2CAD
:1009100020005408003A03198E2CAF2C5308D03E07
:10092000031CAF2C84000A3004020318AF2C913151
:100930000435143E8200AF2C21006908003A0319E7
:10094000A22CAF2C6808D03E031CAF2C84000A30C8
:1009500004020318AF2C91310435283E8200200098
:100960001312141FC42E141321005E035F04031D11
:10097000C22E7A037B040319AF2EC22E7B30862E43
:100980007C308B2E7D30280099008830982E7F3067
:10099000280099001830982E8030272E81302C2E78
:1009A0008330362E833028009900C830982EF82CDA
:1009B0008530280099005830982E20005208003ABF
:1009C0000319E32CC22E5108D03E031CC22E840012
:1009D0000A3004020318C22E913104353C3E8200D5
:1009E000C22E8630402E863028009900E830982E9E
:1009F0008730452E88304A2E89304F2E8A30280085
:100A000099000830982E8A30682E8B302800990083
:100A10009830982E8C306D2E8D302800990028301B
:100A2000982E20005208003A0319172DC22E5108A3
:100A3000D03E031CC22E84000A3004020318C22ECA
:100A400091310435503E8200C22E8D30722E8E3090
:100A500028009900B830982E8F30772E90302800DB
:100A600099004830982E91307C2E913028009900C2
:100A7000D830982E9230812E93302800990068301B
:100A8000982E9430862E943028009900F830982EB5
:100A900020005208003A03194E2DC22E5108D03EB4
:100AA000031CC22E84000A3004020318C22E9131A6
:100AB0000435643E8200C22E95308B2E9730902EE6
:100AC0009830952E9A302C2E9C30362E9D303B2E11
:100AD0009F30402EA030452EA2304F2EA330682EDE
:100AE00020005208003A0319762DC22E5108D03E3C
:100AF000031CC22E84000A3004020318C22E913156
:100B00000435783E8200C22EA5306D2EA630722E9E
:100B1000A830772EAA307C2EAB30812EAD30862EB9
:100B2000AE308B2EB030902EB130952EB3302C2EAF
:100B300020005208003A03199E2DC22E5108D03EC3
:100B4000031CC22E84000A3004020318C22E913105
:100B500004358C3E8200C22EB530362EB6303B2E88
:100B6000B830402EB930452EBB304F2EBC30682EE9
:100B7000BE306D2EBF30722EC130772EC3307C2E2A
:100B800020005208003A0319C62DC22E5108D03E4B
:100B9000031CC22E84000A3004020318C22E9131B5
:100BA0000435A03E8200C22EC430812EC630862E6F
:100BB000C7308B2EC930902ECA30952ECC302C2EBB
:100BC000CE30362ECF303B2ED130402ED230452E77
:100BD00020005208003A0319EE2DC22E5108D03ED3
:100BE000031CC22E84000A3004020318C22E913165
:100BF0000435B43E8200C22ED4304F2ED530682E3C
:100C0000D7306D2ED830722EDA30772EDC307C2E35
:100C1000DD30812EDF30862EE0308B2EE230902EBC
:100C200020005208003A0319162EC22E5108D03E59
:100C3000031CC22E84000A3004020318C22E913114
:100C40000435C83E8200C22EE330952EE4302800E1
:100C50009900A830982EE530280099007030982E21
:100C6000E630280099003830982EE73028009900A7
:100C70009801992EE830280099009030982EEA309B
:100C8000280099002030982EEB3028009900B030D1
:100C9000982EEC30280099007830982EED302800FE
:100CA00099004030982E20005208003A0319592E1E
:100CB000C22E5108D03E031CC22E84000A3004020A
:100CC0000318C22E91310435DC3E8200C22EEE3074
:100CD00028009900D030982EF0302800990060301C
:100CE000982EF13028009900F030982EF33028002B
:100CF00099008030982EF530280099001030982EF9
:100D0000F63028009900A030982EF830280099007D
:100D10003030982EF93028009900C030982EFB30E2
:100D2000280099005030982EFC3028009900E030BF
:100D300098001A14C22E20005208003A0319A12E5E
:100D4000C22E5108D03E031CC22E84000A30040279
:100D50000318C22E92310435003E8200C22E2100BB
:100D60006708003A0319B52EC22E6608D03E031C50
:100D7000C22E84000A3004020318C22E92310435B8
:100D8000143E8200200014137108FF007E10090039
:100D90008631CA2E803102208631E0008031032066
:100DA0008631E1000930840089308500A03086005A
:100DB000003087002E3092319D2286316A308400C7
:100DC000873085002030860001308700483092311E
:100DD0009D228631FA01FB014530840000308500F8
:100DE0001B309231A3228631DE3084000030850032
:100DF0000E309231A3227E1020008B31FC2B20007C
:100E0000A50025088600870120300106031D0D2F4F
:100E10000130A0002008A507012F250886008701C2
:100E2000093001060319082FA301A401A201250816
:100E3000860087012D300106031D232F0130A000FD
:100E40002008A2072A2F2508860087012B300106DB
:100E5000031D2E2F0130A0002008A50725088600BD
:100E600087010108923128228631031C552F20006A
:100E70002408F3002308F2000A30F4000030F500E3
:100E80008831AC20863120002508860087010108C2
:100E90007207A00073080318730AA1002008D03E4F
:100EA000A300FF30213DA4002A2F200022080319AF
:100EB000652F2309A0002409A100A00A0319A10A93
:100EC0002008F8002108F90008002408F900230888
:100ED000F8000800243400340034003400340034B6
:100EE0000034003400340034003400340034003462
:100EF0000034003400340034003400340034003452
:100F00000034003400340034003400340034003441
:100F100000340034003400340034003461340034D0
:100F20000034003400340034003400340034003421
:100F30000034003400340034003400340034003411
:100F40000034003400340034003400340034003401
:100F500000340034003400340034003400340034F1
:100F6000003400342000A201A301A001A1017308F4
:100F7000A3007208A2002308803AF6007508803AA0
:100F80007602031DC52F740822020318E82F2000E3
:100F90002208443E8600013087000108F600200840
:100FA000203E860001308700760881000130A007CE
:100FB0000030A13D2330F6002208443E8600013077
:100FC0008700760881000130A2070030A33DBB2FC7
:100FD0002000CF01D00108008031B7288031B92826
:100FE0008031BB288031BF288031C3288031C5289B
:100FF0008031C7288031C9288031CD288031CE2862
:101000008031E6288031E8288031EC288031EE28D4
:101010008031F0288031F2288031F6288031F8289C
:101020008031FC288031FE28813116298131182930
:1010300081311C2981311E298131222981312429C4
:101040008131282981312A2981312E298131302984
:101050008131482981314A2981314C2981314E29F8
:1010600081315029813152298131542981315629C8
:101070008131582981315A29813170298131722970
:1010800081317429813176298131782981317A2918
:1010900081317C2981317E298131802981318229E8
:1010A0008131982981319A2981319C2981319E2968
:1010B0008131A0298131A2298131A4298131A62938
:1010C0008131A8298131AA298131C0298131C229E0
:1010D0008131C4298131C6298131C8298131CA2988
:1010E0008131CC298131CE298131D0298131D22958
:1010FA002100911211120A3023009F0090309D00A6
:10110A0024309E00A0309B0001309C008B170B17E7
:10111A002100911623009E169D170800F500F30181
:10112A00F4010430730674040319080023009E1C9A
:10113A009B2875088600870101089A000130F20091
:10114A007208F5070130F3070030F43D9628F601DE
:10115A00F701721CB4287408F6077508F73D0130C8
:10116A00F435F50D890BB5280130F336F20C890BED
:10117A00BA2872087304031DAE287708F3007608AC
:10118A00F200080088317D2088319231422288316C
:10119A0092318122883192317722883192314E22DE
:1011AA00883192316322883192316D2288319231AD
:1011BA009422883192315922883192318B22080047
:1011CA0028008D0126000D1429008D0128008C01AC
:1011DA0026000C108C100C158C158C168C172400FC
:1011EA00900123009001210010111012101090108C
:1011FA009015901223008C0121000C118C118C1671
:10120A000E150E138E17080036349234003400344B
:10121A000034003400340034003400340034003424
:10122A000034003400340034003400340034003414
:10123A005434303430343034303430343034303460
:10124A003034303430343034303430343034303474
:10125A0030343034303430343034303400340034C4
:10126A00003400342000B400BB01BC01BD01BE0142
:10127A00B901BA01543026060319E52BAE01AF01B4
:10128A002708D03EBD00FF3003180030BE003408E6
:10129A00AC002C08B7002608AC002C08B800373080
:1012AA008631FF26893179082000BA007808B9000A
:1012BA002808AC002C08B5002908AC002C08B60098
:1012CA0035308631FF26893179082000AF00780849
:1012DA00AE002A08D03EB000FF3003180030B1003B
:1012EA003A08AD003908AC00AC35AD0D2C08FF3E0C
:1012FA00B200FF302D3DB3003235A03E8600870193
:10130A003008C03F3108C13F3A08AD003908AC0087
:10131A00AC35AD0DAC35AD0D2C08FD3EBB00FF3034
:10132A002D3DBC004730AC003B08B43E8600870127
:10133A002C0881000130BB070030BC3D2708AC00F7
:10134A003B08B43E860087012C0881000130BB07A8
:10135A000030BC3D3408AC003B08B43E860087012F
:10136A002C0881000130BB070030BC3D2608AC00C8
:10137A003B08B43E860087012C088100FD30BB077C
:10138A00FF30BC3D31302B06031DD0293B08B43E4B
:10139A008831932089312000E001E101E52B3D1CD1
:1013AA00D92925000C14DB2925000C1020003E0841
:1013BA00CE003D08CD0008003E08CE003D08CD0015
:1013CA003D083E04031D242A0B302000AD002630C0
:1013DA00AC005D30890BEF29AC0BEF29AD0BEF297F
:1013EA0000322000101115302000AD004B30AC0047
:1013FA00BE30890BFE29AC0BFE29AD0BFE2900007D
:10140A002000101215302000AD004B30AC00BE3069
:10141A00890B0D2AAC0B0D2AAD0B0D2A00002000FA
:10142A00901015302000AD004B30AC00BE30890B57
:10143A001C2AAC0B1C2AAD0B1C2A000008003230F7
:10144A0020002806031D602A0B302000AC00623001
:10145A00890B2D2AAC0B2D2A00000B302000AD0081
:10146A002630AC005D30890B382AAC0B382AAD0B1C
:10147A00382A00322000101215302000AD004B30FF
:10148A00AC00BE30890B472AAC0B472AAD0B472A62
:10149A0000002000901015302000AD004B30AC0049
:1014AA00BE30890B562AAC0B562AAD0B562A0000C1
:1014BA0020001015080035302806031D9B2A063027
:1014CA002000AC003030890B682AAC0B682A000077
:1014DA000B302000AD002630AC005D30890B732A3A
:1014EA00AC0B732AAD0B732A003220001011153091
:1014FA002000AD004B30AC00BE30890B822AAC0B09
:10150A00822AAD0B822A000020009010153020009C
:10151A00AD004B30AC00BE30890B912AAC0B912A3E
:10152A00AD0B912A0000200010160800373028065B
:10153A00031DD62A06302000AC003030890BA32ABE
:10154A00AC0BA32A00000B302000AD002630AC0003
:10155A005D30890BAE2AAC0BAE2AAD0BAE2A003237
:10156A00200090100B302000AD002630AC005D301A
:10157A00890BBD2AAC0BBD2AAD0BBD2A0032200057
:10158A0010150B302000AD002630AC005D30890B01
:10159A00CC2AAC0BCC2AAD0BCC2A00322000101678
:1015AA00080039302806031D080006302000AC0068
:1015BA003030890BDE2AAC0BDE2A00000B3020000B
:1015CA00AD002630AC005D30890BE92AAC0BE92A64
:1015DA00AD0BE92A0032200010140B302000AD00B8
:1015EA002630AC005D30890BF82AAC0BF82AAD0B1B
:1015FA00F82A00322000101115302000AD004B30BF
:10160A00AC00BE30890B072BAC0B072BAD0B072B9D
:10161A0000002000101215302000AD004B30AC0045
:10162A00BE30890B162BAC0B162BAD0B162B0000FC
:10163A002000901408003E082100E30020003D0825
:10164A002100E20020003D083E04031D3B2B1C1133
:10165A0018102100111120003D18362B20000C15FE
:10166A00382B20000C11D901DA015C2B3D033E0412
:10167A00031D5C2B2100111520002808AC002C0842
:10168A00DF000130D9000030DA002808AC00AD01D3
:10169A002C082100EA0020002D082100EB00200080
:1016AA002908AC00AD012C08D5002D08D6003E084B
:1016BA00CA003D08C90008003E082100E1002000D8
:1016CA003D082100E00020003D083E04031D7D2B5B
:1016DA002800131017112100131220003D18782B2F
:1016EA0020008C157A2B20008C11D701D8019E2B53
:1016FA003D033E04031D9E2B2100131620002808DB
:10170A00AC002C08DE000130D7000030D8002808D1
:10171A00AC00AD012C082100E80020002D082100B2
:10172A00E90020002908AC00AD012C08D3002D08DF
:10173A00D4003E08C8003D08C70008003E08210042
:10174A00DF0020003D082100DE0020003D083E04A5
:10175A00031DBF2B28001A101E11FA01FB012100DC
:10176A00141320003D18BC2B20009016E02B2000FB
:10177A009012E02B3D033E04031DE02B21001417B9
:10178A0020002808AC002C08DD000130FA000030E7
:10179A00FB002808AC00AD012C082100E60020005F
:1017AA002D082100E70020002908AC00AD012C0813
:1017BA00D1002D08D2003E08C6003D08C500080029
:1017CA003A08003A0319EA2BFB2B3908013A0319A4
:1017DA00D429033A0319E129013A0319202B073ABC
:1017EA000319612B013A0319A32BFB2B080029309B
:1017FA002000C0009630BF007F30890B022CBF0B3F
:10180A00022CC00B022C2100CE01CF01D001D10144
:10181A00D601D701D201D301D401D501D801D9010A
:10182A008831E5208B318831C7208B3125000C1097
:10183A008C10200090168C150C150130CD0000304C
:10184A00CE000130CB000030CC000130C90000309E
:10185A00CA000130C7000030C8000130C50000309E
:10186A00C60010141011101290102530BF003F0846
:10187A002100B40040302000BF003F082100C90009
:10188A00210064036504031D982DE401E501D601D6
:10189A00D701D801D901253022004406031DF72CAF
:1018AA0025304506031DF72C40305206031DF72C40
:1018BA0040305306031DF72C2100DC01DD015D08D1
:1018CA00803A2000BF0080303F02031D6F2C103089
:1018DA0021005C0203184F2D21005C08443E86005B
:1018EA000130870025300106031D922C5C08013E59
:1018FA00443E86000130870025300106031D922CE4
:10190A0056085704031D922C5D08CF005C08CE00D0
:10191A000130D6000030D700F12C5C08443E860026
:10192A000130870025300106031DAE2C5C08013EFC
:10193A00443E86000130870025300106031DAE2C87
:10194A0056035704031DAE2C5D08D1005C08D00075
:10195A00F12C5C08443E86000130870040300106C5
:10196A00031DCF2C5C08013E443E860001308700EF
:10197A0040300106031DCF2C58085904031DCF2CF3
:10198A005D08D3005C08D2000130D8000030D900CD
:10199A000130EC2C21005C08443E860001308700AF
:1019AA0040300106031DF12C5C08013E443E8600CE
:1019BA000130870040300106031DF12C58035904F9
:1019CA00031DF12C5D08D5005C08D400023020000C
:1019DA00CF000030D0004F2D01302100DC0700304D
:1019EA00DD3D642C34302000BF00F130890BFB2C24
:1019FA00BF0BFB2C0032503023009A000630200027
:101A0A00BF003030890B072DBF0B072D00004B306C
:101A1A0023009A0006302000BF003030890B132DB6
:101A2A00BF0B132D00002000DB01DC0123009D13F6
:101A3A009D172100DA01DB015B08803A2000BF0014
:101A4A0080303F02031D2C2D0F3021005A0203184B
:101A5A004C2D23302000BF0021005A08443E860046
:101A6A000130870020003F08810001302100DA0799
:101A7A000030DB3D5B08803A2000BF0080303F0227
:101A8A00031D4A2D0F3021005A02031C2E2D20005F
:101A9A00CF01D00120004F035004031D5D2D21000A
:101AAA004F08F3004E08F2005308F50052086B2D58
:101ABA00023020004F065004031D982D21005108C2
:101ACA00F3005008F2005508F5005408F400873175
:101ADA00B2278B31220023082000BF003F08A6004E
:101AEA00220024082000C0004008A7002200250880
:101AFA002000C1004108A800220026082000C200D8
:101B0A004208A900220027082000C3004308AA00AF
:101B1A00220028082000C4004408AB002200220842
:101B2A00893137218B31210022082304031DCE2D50
:101B3A0020008C1ACE2D4D084E04031DCE2D6003B5
:101B4A006104031DC52D5230BF003F082100B500B6
:101B5A0030302000BF003F082100B600303020009E
:101B6A00BF003F082100B70031302000BF003F0806
:101B7A002100B800B530883193208B3125000C1034
:101B8A0001302000CD000030CE000130E0000030EE
:101B9A00E100210022082304031D022E20008C1ECE
:101BAA00022E4D034E04031D022E60036104031D21
:101BBA00FB2D5230BF003F082100B5003130200014
:101BCA00BF003F082100B60030302000BF003F08A8
:101BDA002100B70031302000BF003F082100B800C3
:101BEA00B530883193208B3125000C142000CD01AB
:101BFA00CE010130E0000030E10021002608270470
:101C0A00031D7B2E25000C197B2E20004B084C044B
:101C1A00031D7B2E60036104031D722E5230BF0028
:101C2A003F082100B90030302000BF003F082100E2
:101C3A00BA0030302000BF003F082100BB0032301C
:101C4A002000BF003F082100BC00B9308831932032
:101C5A008B3105302000C0000F30BF00F130890BF6
:101C6A00342EBF0B342EC00B342E20001014053036
:101C7A002000C0000F30BF00F130890B422EBF0B8D
:101C8A00422EC00B422E2000101105302000C00049
:101C9A000F30BF00F130890B502EBF0B502EC00BF6
:101CAA00502E2000101205302000C0000F30BF0057
:101CBA00F130890B5E2EBF0B5E2EC00B5E2E20000C
:101CCA00901005302000C0000F30BF00F130890BA2
:101CDA006C2EBF0B6C2EC00B6C2E01302000CB007B
:101CEA000030CC000130E0000030E100210026087D
:101CFA002704031DAF2E25000C1DAF2E20004B0319
:101D0A004C04031DAF2E60036104031DA92E52303B
:101D1A00BF003F082100B90031302000BF003F0852
:101D2A002100BA0030302000BF003F082100BB006C
:101D3A0032302000BF003F082100BC00B930883192
:101D4A0093208B3120001010CB01CC010130E00030
:101D5A000030E10021002A082B04031DE82E25008B
:101D6A008C19E82E200049084A04031DE82E600356
:101D7A006104031DE02E5230BF003F082100BD0060
:101D8A0030302000BF003F082100BE003030200064
:101D9A00BF003F082100BF0033302000BF003F08CA
:101DAA002100C000BD30883193208B312100E2012F
:101DBA00E30120000C150130C9000030CA000130CF
:101DCA00E0000030E10021002A082B04031D1F2F28
:101DDA0025008C1D1F2F200049034A04031D1F2FB5
:101DEA0060036104031D192F5230BF003F08210010
:101DFA00BD0031302000BF003F082100BE00303056
:101E0A002000BF003F082100BF0033302000BF0080
:101E1A003F082100C000BD30883193208B3121005A
:101E2A00E201E30120000C11C901CA010130E000FE
:101E3A000030E10021002E082F04031D582F250031
:101E4A008C1A582F200047084804031D582F600396
:101E5A006104031D502F5230BF003F082100C1000A
:101E6A0030302000BF003F082100C200303020007F
:101E7A00BF003F082100C30034302000BF003F08E4
:101E8A002100C400C130883193208B312100E00148
:101E9A00E10120008C150130C7000030C800013074
:101EAA00E0000030E10021002E082F04031D8F2FCF
:101EBA0025008C1E8F2F200047034804031D8F2FF7
:101ECA0060036104031D892F5230BF003F082100BF
:101EDA00C10031302000BF003F082100C20030306D
:101EEA002000BF003F082100C30034302000BF009B
:101EFA003F082100C400C130883193208B31210072
:101F0A00E001E10120008C11C701C8010130E000A5
:101F1A000030E100210032083304031DC82F2500D8
:101F2A008C1BC82F200045084604031DC82F6003D8
:101F3A006104031DC02F5230BF003F082100C500B5
:101F4A0030302000BF003F082100C600303020009A
:101F5A00BF003F082100C70035302000BF003F08FE
:101F6A002100C800C530883193208B312100DE0161
:101F7A00DF01200090160130C5000030C600013094
:101F8A00E0000030E100210032083304031D452C33
:101F9A0025008C1F452C200045034604031D452CB3
:101FAA0060036104031DF92F5230BF003F0821006E
:101FBA00C50031302000BF003F082100C600303084
:101FCA002000BF003F082100C70035302000BF00B5
:101FDA003F082100C800C530883193208B31210089
:101FEA00DE01DF0120009012C501C6010130E000C8
:101FFA000030E100452C8131E8298131EA2981311B
:10200A00EC298131EE298131F0298131F22981319E
:10201A00F4298131F6298131F8298131FA2982316D
:10202A00102A8231122A8231162A82311A2A8231E0
:10203A001E2A8231222A8231262A82312A2A823192
:10204A002E2A8231322A82314A2A82314E2A82311A
:10205A00522A8231562A82315A2A82315E2A8231A2
:10206A00622A8231662A82316A2A82316E2A803154
:10207A00D228813102298131342981315C29813187
:10208A0084298131AC298131D4298131FC298231D9
:10209A00362A8231742A8231AB2A8231AD2A8231C0
:1020AA00AF2A8231B42A8231B92A8231BB2A8231DB
:1020BA00BD2A8231BF2A8231C42A8231C52A82319D
:1020CA00DE2A8231E02A8231E52A8231E72A823108
:1020DA00E92A8231EB2A8231F02A8231F22A8231CC
:1020EA00F72A8231F92A8331122B8331142B833157
:1020FA00192B83311B2B8331202B8331222B8331E4
:10210A00272B8331292B83312E2B8331302B83319B
:10211A00492B83314B2B83314D2B83314F2B833109
:10212A00512B8331532B8331552B8331572B8331D9
:10213A00592B83315B2B8331712B8331732B833181
:10214A00752B8331772B8331792B83317B2B833129
:10215A007D2B83317F2B8331812B8331832B8331F9
:10216A00992B83319B2B83319D2B83319F2B833179
:10217A00A12B8331A32B8331A52B8331A72B833149
:10218A00A92B8331AB2B8331C12B8331C32B8331F1
:10219A00C52B8331C72B8331C92B8331CB2B833199
:1021AA00CD2B8331CF2B8331D12B8331D32B833169
:1021BA00E92B8331EB2B8331ED2B8331EF2B8331E9
:1021CA00F12B8331F32B8331F52B8331F72B8331B9
:0621DA00F92B8331FB2B01
:102200008431112C8431132C8431182C84311D2CF1
:102210008431222C8431272C84312C2C8431312C94
:102220008431362C84313B2C8431542C8431592C0C
:1022300084315E2C8431632C8431682C84316D2C84
:102240008431722C8431772C84317C2C8431812C24
:102250008231CA2A8231FE2A8331352B83315D2BAC
:102260008331852B8331AD2B8331D52B8331FD2BEE
:102270008431402C8431882C8431BE2C8431C02C94
:102280008431C22C8431C72C8431CC2C8431CE2CA7
:102290008431D02C8431D22C8431D72C8431D82C69
:1022A0008431F12C8431F32C8431F82C8431FA2CD4
:1022B0008431FC2C8431FE2C8531032D8531052D94
:1022C00085310A2D85310C2D8531252D8531272D20
:1022D00085312C2D85312E2D8531332D8531352DB0
:1022E00085313A2D85313C2D8531412D8531432D68
:1022F00085315C2D85315E2D8531602D8531622DD6
:102300008531642D8531662D8531682D85316A2DA5
:1023100085316C2D85316E2D8531842D8531862D4D
:102320008531882D85318A2D85318C2D85318E2DF5
:102330008531902D8531922D8531942D8531962DC5
:102340008531AC2D8531AE2D8531B02D8531B22D45
:102350008531B42D8531B62D8531B82D8531BA2D15
:102360008531BC2D8531BE2D8531D42D8531D62DBD
:102370008531D82D8531DA2D8531DC2D8531DE2D65
:102380008531E02D8531E22D8531E42D8531E62D35
:102390008531FC2D8531FE2D8631002E8631022EB1
:1023A0008631042E8631062E8631082E86310A2E7D
:1023B00086310C2E86310E2E8631242E8631262E25
:1023C00086312B2E8631302E8631352E86313A2EAF
:1023D00086313F2E8631442E8631492E86314E2E4F
:102400008631672E86316C2E8631712E8631762E7E
:1024100086317B2E8631802E8631852E86318A2E1E
:1024200086318F2E8631942E8431DD2C8531112D0D
:102430008531482D8531702D8531982D8531C02D00
:102440008531E82D8631102E8631532E86319B2E14
:10245000F300F2013A3073020318342A3030730269
:10246000031C342AF201F20A720C080030343034B2
:10247000303430343034303430343034303430343C
:102480003034003404302500930092019101200083
:102490001111210011158B170B170800200098014E
:1024A0009901970196011110210011148B170B1738
:1024B000080028009A019B0199019801200013113E
:1024C0002100131508002800930194019201910145
:1024D00020001310210013140800083020009C0075
:1024E0009A019110210091148B170B17080084306A
:1024F0002C009C009B019A0120001413210014134E
:1025000008008430260093009101920120001312EC
:10251000210013120800083028009E009C012000B2
:1025200093112100931508000830280097009501A9
:1025300020009310210093140800FE0012001E00DA
:10254000FE0B9E2A0034640080010131890BA42A0D
:02255000003455
:020000040001F9
:04000E00A2C9FFDDA7
:00000001FF
