:100000008231592A013400347E14803120007F0867
:10001000F100911E582823009D1C19281D121D1641
:100020002000111E1028463023009A002000111EC7
:10003000162823001908F00020005D08A03E860065
:10004000870170088100253021002006031D41280A
:1000500001302000DD070030DE3D5E08803AF00010
:1000600080307002031D362810305D02031C5828B2
:100070002000DD01DE010130CF000030D000911200
:10008000582823001D121D162000DD01DE01111E5F
:100090004728463023009A002000111E4C28523079
:1000A00023009A002000111E5228523023009A008B
:1000B0002100911C61282000911C612891100C15D1
:1000C0001C112100111C6D282000111C6D2811101D
:1000D00018100C119F309B001C1520001119111DC8
:1000E000552A11114D034E04031D542A5B035C0471
:1000F0000319422A542A7B301E2A7C30222A7D3062
:10010000970088302C2A7F30970018302C2A8030B6
:10011000CF298130D3298330DB2983309700C83041
:100120002C2AAF288530970058302C2A5408003AE2
:1001300003199B28542A5308D03E031C542A8400D8
:100140000A3004020318542A88310435003E820024
:10015000542A8630E32986309700E8302C2A8730ED
:10016000E7298830EB298930EF298A309700083059
:100170002C2A8A30062A8B30970098302C2A8C3013
:100180000A2A8D30970028302C2A5408003A031987
:10019000CA28542A5308D03E031C542A84000A302B
:1001A00004020318542A88310435143E8200542A6C
:1001B0008D300E2A8E309700B8302C2A8F30122ABC
:1001C0009030970048302C2A9130162A91309700B1
:1001D000D8302C2A92301A2A9330970068302C2A73
:1001E00094301E2A94309700F8302C2A5408003A94
:1001F0000319FB28542A5308D03E031C542A8400B8
:100200000A3004020318542A88310435283E82003B
:10021000542A9530222A9730262A98302A2A9A3052
:10022000D3299C30DB299D30DF299F30E329A03082
:10023000E729A230EF29A330062A5408003A03190F
:100240002229542A5308D03E031C542A84000A3021
:1002500004020318542A883104353C3E8200542A93
:10026000A5300A2AA6300E2AA830122AAA30162A49
:10027000AB301A2AAD301E2AAE30222AB030262AE0
:10028000B1302A2AB330D3295408003A0319492936
:10029000542A5308D03E031C542A84000A30040216
:1002A0000318542A88310435503E8200542AB53050
:1002B000DB29B630DF29B830E329B930E729BB3074
:1002C000EF29BC30062ABE300A2ABF300E2AC130C0
:1002D000122AC330162A5408003A03197029542AE6
:1002E0005308D03E031C542A84000A300402031829
:1002F000542A88310435643E8200542AC4301A2AB4
:10030000C6301E2AC730222AC930262ACA302A2AD5
:10031000CC30D329CE30DB29CF30DF29D130E329CF
:10032000D230E7295408003A03199729542A530870
:10033000D03E031C542A84000A3004020318542AB5
:1003400088310435783E8200542AD430EF29D530E4
:10035000062AD7300A2AD8300E2ADA30122ADC30A0
:10036000162ADD301A2ADF301E2AE030222AE23037
:10037000262A5408003A0319BE29542A5308D03EAD
:10038000031C542A84000A3004020318542A8831BA
:1003900004358C3E8200542AE3302A2AE430970048
:1003A000A8302C2AE530970070302C2AE6309700D0
:1003B00038302C2AE730970096012D2AE830970034
:1003C00090302C2AEA30970020302C2AEB3097000E
:1003D000B0302C2AEC30970078302C2AED30970082
:1003E00040302C2A5408003A0319F729542A53089C
:1003F000D03E031C542A84000A3004020318542AF5
:1004000088310435A03E8200542AEE309700D03067
:100410002C2AF030970060302C2AF1309700F03011
:100420002C2AF330970080302C2AF53097001030BA
:100430002C2AF6309700A0302C2AF8309700303064
:100440002C2AF9309700C0302C2AFB30970050300E
:100450002C2AFC309700E03096001814542A5408D7
:10046000003A0319342A542A5308D03E031C542A54
:1004700084000A3004020318542A88310435B43E3B
:100480008200542A5608003A0319472A542A55086C
:10049000D03E031C542A84000A3004020318542A54
:1004A00088310435C83E820011117108FF007E10AA
:1004B000090082315B2A803102208231E0008031E4
:1004C00003208231E1001130840087308500A030A4
:1004D0008600003087003E308731F9278231CD30E9
:1004E000840086308500203086000130870044304B
:1004F0008731F9278231FA01FB0145308400003051
:1005000085001B308F317B278231DE308400003044
:1005100085000E308F317B277E1020008231902A9B
:1005200029302000C0009630BF007F30890B962A0A
:10053000BF0B962AC00B962A2300A001A101A2019D
:10054000A301A801A901A401A501A601A701AA016F
:10055000AB018731872782318731A7278231250078
:100560000C108C10200090168C150C150130C90051
:100570000030CA000130C7000030C8000130C5009B
:100580000030C60001302100E0000030E100013001
:10059000DE000030DF0025302000BF003F082100D2
:1005A000C40040302000BF003F082100D9002000D7
:1005B0004F035004031D212CCF01D0012300A801BB
:1005C000A901AA01AB01253021002006031D822BC1
:1005D00025302106031D822B40302E06031D822B61
:1005E00040302F06031D822B2300AE01AF012F08E0
:1005F000803A2000BF0080303F02031D022B1030E4
:1006000023002E020318D82B23002E08A03E8600BC
:10061000870125300106031D232B2E08013EA03E35
:100620008600870125300106031D232B2808290495
:10063000031D232B2F08A1002E08A0000130A800C5
:100640000030A9007C2B2E08A03E860087012530B3
:100650000106031D3D2B2E08013EA03E86008701AA
:1006600025300106031D3D2B28032904031D3D2BC6
:100670002F08A3002E08A2007C2B2E08A03E860087
:10068000870140300106031D5C2B2E08013EA03E71
:100690008600870140300106031D5C2B2A082B04CD
:1006A000031D5C2B2F08A5002E08A4000130AA0012
:1006B0000030AB000130772B23002E08A03E8600CF
:1006C000870140300106031D7C2B2E08013EA03E11
:1006D0008600870140300106031D7C2B2A032B0472
:1006E000031D7C2B2F08A7002E08A6000230200037
:1006F000CB000030CC00D82B01302300AE070030F7
:10070000AF3DF72A34302000BF00F130890B862B33
:10071000BF0B862B0032503023009A000630200099
:10072000BF003030890B922BBF0B922B00004B3057
:1007300023009A0006302000BF003030890B9E2B2A
:10074000BF0B9E2B00002000DD01DE0123009D1366
:100750009D17AC01AD012D08803A2000BF0080300C
:100760003F02031DB62B0F3023002C020318D52B9C
:1007700023302000BF0023002C08A03E8600870104
:1007800020003F08810001302300AC070030AD3D60
:100790002D08803A2000BF0080303F02031DD32B7C
:1007A0000F3023002C02031CB82B2000CB01CC01FE
:1007B00020004B034C04031DE62B23002108F3000B
:1007C0002008F2002508F5002408F42B0230200050
:1007D0004B064C04031D212C23002308F3002208A0
:1007E000F2002708F5002608F40087314F278231F0
:1007F000220023082000BF003F08A6002200240892
:100800002000C0004008A700220025082000C100E9
:100810004108A800220026082000C2004208A900C2
:10082000220027082000C3004308AA00220028084D
:100830002000C4004408AB00220022088531602556
:10084000823122004508031D562C20008C1A562C9C
:1008500049084A04031D562C60036104031D4D2CF6
:100860005230BF003F082100C50030302000BF00DB
:100870003F082100C60030302000BF003F082100A3
:10088000C70031302000BF003F082100C800C5303C
:100890008731E027823125000C1001302000C9008B
:1008A0000030CA000130E0000030E10022004508BD
:1008B000031D892C20008C1E892C49034A04031D2A
:1008C000892C60036104031D822C5230BF003F0855
:1008D0002100C50031302000BF003F082100C600C4
:1008E00030302000BF003F082100C7003130200019
:1008F000BF003F082100C800C5308731E0278231A2
:1009000025000C142000C901CA010130E0000030AC
:10091000E10022004708031DBF2C25000C19BF2C45
:10092000200047084804031DBF2C60036104031D19
:10093000B62C5230BF003F082100C90030302000E3
:10094000BF003F082100CA0030302000BF003F0830
:100950002100CB0032302000BF003F082100CC0036
:10096000C9308731E027823125008C10013020000A
:10097000C7000030C8000130E0000030E100220074
:100980004708031DF32C25000C1DF32C2000470302
:100990004804031DF32C60036104031DEC2C52304A
:1009A000BF003F082100C90031302000BF003F08D0
:1009B0002100CA0030302000BF003F082100CB00DA
:1009C00032302000BF003F082100CC00C930873101
:1009D000E027823125008C142000C701C8010130B6
:1009E000E0000030E10022004908031D2A2D250007
:1009F0008C192A2D200045084604031D2A2D60036A
:100A00006104031D222D5230BF003F082100CD009C
:100A100030302000BF003F082100CE0030302000E1
:100A2000BF003F082100CF0033302000BF003F0847
:100A30002100D000CD308731E027823120000C1515
:100A4000CD01CE010130C5000030C6000130E0000C
:100A50000030E10022004908031DD72A25008C1D23
:100A6000D72A200045034604031DD72A60036104EA
:100A7000031D592D5230BF003F082100CD003130F9
:100A80002000BF003F082100CE0030302000BF0012
:100A90003F082100CF0033302000BF003F08210075
:100AA000D000CD308731E027823120000C11CD01FC
:100AB000CE01C501C6010130E0000030E100D72AB7
:100AC0002000B400BB01BC01BD01BE01B901BA01E7
:100AD000543026060319512EAE01AF012708D03E2F
:100AE000BD00FF3003180030BE003408AC002C08F5
:100AF000B7002608AC002C08B800373086316226D3
:100B0000853179082000BA007808B9002808AC00BF
:100B10002C08B5002908AC002C08B6003530863109
:100B20006226853179082000AF007808AE002A08D7
:100B3000D03EB000FF3003180030B1003A08AD00DD
:100B40003908AC00AC35AD0D2C08FF3EB200FF30CB
:100B50002D3DB3003008AC003208443E8600013021
:100B600087002C0881003A08AD003908AC00AC358C
:100B7000AD0DAC35AD0D2C08FD3EBB00FF302D3D5D
:100B8000BC004730AC003B08C43E860087012C08FF
:100B900081000130BB070030BC3D2708AC003B089A
:100BA000C43E860087012C0881000130BB0700305D
:100BB000BC3D3408AC003B08C43E860087012C08CD
:100BC00081000130BB070030BC3D2608AC003B086B
:100BD000C43E860087012C088100FD30BB07FF3032
:100BE000BC3D31302B06031DFA2D3B08C43E873136
:100BF000E02785312000E001E101512E3D1C032E4C
:100C000025000C14052E25000C1020003E08CA00FB
:100C10003D08C90008003D1C102E25008C14122E22
:100C200025008C1020003E08C8003D08C7000800C1
:100C30003E08CE003D08CD003D083E04031D2F2E8A
:100C40001C1118102100111120003D182A2E20001F
:100C50000C152C2E20000C11DB01DC014C2E3D0369
:100C60003E04031D4C2E2100111520002808AC0065
:100C70002C08DF000130DB000030DC002808AC006D
:100C8000AD012C08D5002D08D6002908AC00AD0117
:100C90002C08D3002D08D4003E08C6003D08C5002E
:100CA00008003A08003A0319562E612E3908013A15
:100CB0000319FE2D033A03190B2E013A0319182EBE
:100CC000612E08002000A50025088600870120303D
:100CD0000106031D702E0130A0002008A507642E18
:100CE0002508860087010930010603196B2EA30130
:100CF000A401A2012508860087012D300106031DED
:100D0000862E0130A0002008A2078D2E250886001F
:100D100087012B300106031D912E0130A000200811
:100D2000A50725088600870101088F31DC27863159
:100D3000031CB82E20002408F3002308F2000A3018
:100D4000F4000030F5008731C527863120002508E2
:100D50008600870101087207A00073080318730A50
:100D6000A1002008D03EA300FF30213DA4008D2E1D
:100D7000200022080319C82E2309A0002409A1007D
:100D8000A00A0319A10A2008F8002108F9000800A8
:100D90002408F9002308F800080024340034003443
:100DA00000340034003400340034003400340034A3
:100DB0000034003400340034003400340034003493
:100DC0000034003400340034003400340034003483
:100DD0000034003400340034003400340034003473
:100DE00000347034003400340034003400340034F3
:100DF0000034003400340034003400340034003453
:100E00000034003400340034003400340034003442
:100E10000034003400340034003400340034003432
:100E200000346134003400340034003400340034C1
:100E30000034003400340034003400340034003412
:100E40000034003400340034003400340034003402
:100E500000340034003400340034003400340034F2
:100E6000003400340034003400345434303430342E
:100E70003034303430343034303430343034303452
:100E80003034303430343034303430343034303442
:100E90003034303430340034003400340034200036
:100EA000A201A301A001A1017308A3007208A2007E
:100EB0002308803AF6007508803A7602031D622FF7
:100EC000740822020318832F20002208A03E860007
:100ED00087010108F6002008203E860001308700C7
:100EE000760881000130A0070030A13D2330F600D4
:100EF0002208A03E86008701760881000130A20703
:100F00000030A33D582F2000CB01CC010800280061
:100F10008D0126000D1429008D0128008C0126006A
:100F20000C108C100C158C158C168C17240090014D
:100F30002300900121009015901223008C012100C4
:100F40000C118C118C160E150E138E1708008F3194
:100F5000EA2787318F31D02787318F319327873127
:100F60008F319D2787318F31C52787318F31B12749
:100F700087318F31A72787318F31812787318F3193
:100F8000BB2787318F318A270800F601F701721CD1
:100F9000CD2F7408F6077508F73D0130F435F50DCF
:100FA000890BCE2F0130F336F20C890BD32F720848
:100FB0007304031DC72F7708F3007608F2000800BA
:100FC000F500F301F40104307306740403190800FA
:100FD00023009E1CE82F75088600870101089A00EF
:100FE0000130F2007208F5070130F3070030F43DDC
:0E0FF000E32FFE0012001E00FE0BFA2F00344D
:1010000080317B2880317D2880317F288031832882
:10101000803187288031892880318B2880318D2844
:1010200080319128803192288031A9288031AB28E5
:101030008031AF288031B1288031B3288031B52884
:101040008031B9288031BB288031BF288031C12848
:101050008031D8288031DA288031DE288031E028BC
:101060008031E4288031E6288031EA288031EC287C
:101070008031F0288031F2288131092981310B2912
:1010800081310D2981310F298131112981311329B4
:1010900081311529813117298131192981311B2984
:1010A0008131302981313229813134298131362908
:1010B0008131382981313A2981313C2981313E29D8
:1010C0008131402981314229813157298131592982
:1010D00081315B2981315D2981315F29813161292C
:1010E00081316329813165298131672981316929FC
:1010F00081317E2981318029813182298131842980
:10110000813186298131882981318A2981318C294F
:1011100081318E29813190298131A5298131A729F9
:101120008131A9298131AB298131AD298131AF29A3
:101130008131B1298131B3298131B5298131B72973
:101140008131CC298131CE298131D2298131D629F1
:101150008131DA298131DE298131E2298131E629A3
:101160008131EA298131EE298231052A8231092A29
:1011700082310D2A8231112A8231152A8231192AAF
:1011800082311D2A8231212A8231252A8231292A5F
:10119000803196288031C5288031F62881311D297B
:1011A0008131442981316B29813192298131B929D9
:0811B0008131F22982312F2A5E
:101EF600640080010131890B7C2F003408302800F2
:101F060097009501200093102100931408000830D3
:101F160028009E009C0120009311210093150800C3
:101F260084302600930091019201200013122100B3
:101F36001312080084302C009C009B019A0120009B
:101F46001413210014130800083020009C009A0185
:101F56009110210091148B170B170800280093018C
:101F6600940192019101200013102100131408001E
:101F760028009A019B019901980120001311210064
:101F86001315080020009801990197019601111078
:101F9600210011148B170B1708000430250093003D
:101FA6009201910120001111210011158B170B17B9
:101FB6000800F300F2013A3073020318E82F3030BC
:101FC6007302031CE82FF201F20A720C08002100CA
:101FD600911211120A3023009F0090309D00243088
:101FE6009E00A0309B0001309C008B170B17210030
:0A1FF600911623009E169D170800A7
:020000040001F9
:04000E00A2C9FFDDA7
:00000001FF
