:040000008631B82E5F
:100008007E14803120007F08F100911E5B282300B8
:100018009D1C19281D121D162000111E102846307F
:1000280023009A002000111E162823001908F0004A
:1000380020005B08443E860001308700700881007C
:10004800253022004406031D442801302000DB0728
:100058000030DC3D5C08803AF00080307002031DFF
:10006800372810305B02031C5B282000DB01DC0111
:1000780001302100D9000030DA00200091125B28FD
:1000880023001D121D162000DB01DC01111E4A2869
:10009800463023009A002000111E4F2852302300BA
:1000A8009A002000111E5528523023009A00210082
:1000B800911C64282000911C6428911090161C1132
:1000C8002100111C70282000111C70281110181014
:1000D80090129F309B001C152100931C7A28200049
:1000E800931C7A2893108C15280017112100131CD3
:1000F80087282000131C872813108C119F30280094
:100108009600171513102100931D91282000931DA8
:10011800912893110C1528001E112100131D9E28EB
:100128002000131D9E2813110C119F3028009D00DC
:100138001E151A102000111D131AA428141FB42EFE
:10014800111D8D2A1111210057035804031D8B2AF4
:10015800200059035A040319792A8B2A7B30552A1F
:100168007C30592A7D3097008830632A7F30970089
:100178001830632A8030062A81300A2A8330122AEE
:1001880083309700C830632AE628853097005830B6
:10019800632A5208003A0319D2288B2A5108D03E04
:1001A800031C8B2A84000A30040203188B2A883126
:1001B8000435003E82008B2A86301A2A8630970042
:1001C800E830632A87301E2A8830222A8930262A76
:1001D8008A3097000830632A8A303D2A8B3097008E
:1001E8009830632A8C30412A8D3097002830632A52
:1001F8005208003A031901298B2A5108D03E031CE2
:100208008B2A84000A30040203188B2A88310435AB
:10021800143E82008B2A8D30452A8E309700B830E4
:10022800632A8F30492A903097004830632A9130EA
:100238004D2A91309700D830632A9230512A933052
:1002480097006830632A9430552A94309700F83024
:10025800632A5208003A031932298B2A5108D03EE2
:10026800031C8B2A84000A30040203188B2A883165
:100278000435283E82008B2A9530592A97305D2A0A
:100288009830612A9A300A2A9C30122A9D30162A00
:100298009F301A2AA0301E2AA230262AA3303D2ACF
:1002A8005208003A031959298B2A5108D03E031CD9
:1002B8008B2A84000A30040203188B2A88310435FB
:1002C8003C3E82008B2AA530412AA630452AA83018
:1002D800492AAA304D2AAB30512AAD30552AAE30C2
:1002E800592AB0305D2AB130612AB3300A2A52083F
:1002F800003A031980298B2A5108D03E031C8B2A07
:1003080084000A30040203188B2A88310435503ED1
:1003180082008B2AB530122AB630162AB8301A2A2B
:10032800B9301E2ABB30262ABC303D2ABE30412AAD
:10033800BF30452AC130492AC3304D2A5208003AF5
:100348000319A7298B2A5108D03E031C8B2A840045
:100358000A30040203188B2A88310435643E82006F
:100368008B2AC430512AC630552AC730592AC93079
:100378005D2ACA30612ACC300A2ACE30122ACF3000
:10038800162AD1301A2AD2301E2A5208003A0319E6
:10039800CE298B2A5108D03E031C8B2A84000A30B0
:1003A800040203188B2A88310435783E82008B2A90
:1003B800D430262AD5303D2AD730412AD830452A8C
:1003C800DA30492ADC304D2ADD30512ADF30552A0F
:1003D800E030592AE2305D2A5208003A0319F5291B
:1003E8008B2A5108D03E031C8B2A84000A30040251
:1003F80003188B2A883104358C3E82008B2AE3301F
:10040800612AE4309700A830632AE53097007030FD
:10041800632AE63097003830632AE7309700960160
:10042800642AE83097009030632AEA309700203039
:10043800632AEB309700B030632AEC3097007830AD
:10044800632AED3097004030632A5208003A0319B6
:100458002E2A8B2A5108D03E031C8B2A84000A308E
:10046800040203188B2A88310435A03E82008B2AA7
:10047800EE309700D030632AF03097006030632A5E
:10048800F1309700F030632AF33097008030632A08
:10049800F53097001030632AF6309700A030632AB1
:1004A800F83097003030632AF9309700C030632A5B
:1004B800FB3097005030632AFC309700E0309600FC
:1004C80018148B2A5208003A03196B2A8B2A5108F0
:1004D800D03E031C8B2A84000A30040203188B2A9E
:1004E80088310435B43E82008B2A5408003A031937
:1004F8007E2A8B2A5308D03E031C8B2A84000A309C
:10050800040203188B2A88310435C83E8200200073
:100518001111131EA02C1312210055035604031D9C
:100528009E2C20005703580403198C2C9E2C7B30DA
:10053800632C7C30682C7D30280092008830752C24
:100548007F30280092001830752C8030042C8130C0
:10055800092C8330132C833028009200C830752C66
:10056800D52A8530280092005830752C2000500874
:10057800003A0319C02A9E2C4F08D03E031C9E2C1B
:1005880084000A30040203189E2C88310435DC3EAE
:1005980082009E2C86301D2C863028009200E83080
:1005A800752C8730222C8830272C89302C2C8A30C7
:1005B800280092000830752C8A30452C8B30280092
:1005C80092009830752C8C304A2C8D30280092007F
:1005D8002830752C20005008003A0319F42A9E2C64
:1005E8004F08D03E031C9E2C84000A3004020318D6
:1005F8009E2C89310435003E82009E2C8D304F2C74
:100608008E3028009200B830752C8F30542C9030E2
:10061800280092004830752C9130592C91302800D0
:100628009200D830752C92305E2C933028009200BE
:100638006830752C9430632C943028009200F83080
:10064800752C20005008003A03192B2B9E2C4F08BC
:10065800D03E031C9E2C84000A30040203189E2CF2
:1006680089310435143E82009E2C9530682C9730D1
:100678006D2C9830722C9A30092C9C30132C9D309C
:10068800182C9F301D2CA030222CA2302C2CA330EB
:10069800452C20005008003A0319532B9E2C4F0874
:1006A800D03E031C9E2C84000A30040203189E2CA2
:1006B80089310435283E82009E2CA5304A2CA6306C
:1006C8004F2CA830542CAA30592CAB305E2CAD30AE
:1006D800632CAE30682CB0306D2CB130722CB33036
:1006E800092C20005008003A03197B2B9E2C4F0838
:1006F800D03E031C9E2C84000A30040203189E2C52
:10070800893104353C3E82009E2CB530132CB6301E
:10071800182CB8301D2CB930222CBB302C2CBC30F6
:10072800452CBE304A2CBF304F2CC130542CC3301E
:10073800592C20005008003A0319A32B9E2C4F086F
:10074800D03E031C9E2C84000A30040203189E2C01
:1007580089310435503E82009E2CC4305E2CC63050
:10076800632CC730682CC9306D2CCA30722CCC3041
:10077800092CCE30132CCF30182CD1301D2CD23070
:10078800222C20005008003A0319CB2B9E2C4F082E
:10079800D03E031C9E2C84000A30040203189E2CB1
:1007A80089310435643E82009E2CD4302C2CD530FF
:1007B800452CD7304A2CD8304F2CDA30542CDC302A
:1007C800592CDD305E2CDF30632CE030682CE230B1
:1007D8006D2C20005008003A0319F32B9E2C4F086B
:1007E800D03E031C9E2C84000A30040203189E2C61
:1007F80089310435783E82009E2CE330722CE43037
:1008080028009200A830752CE5302800920070303E
:10081800752CE630280092003830752CE730280017
:1008280092009101762CE830280092009030752CC7
:10083800EA30280092002030752CEB302800920016
:10084800B030752CEC30280092007830752CED30E3
:10085800280092004030752C20005008003A0319F7
:10086800362C9E2C4F08D03E031C9E2C84000A3048
:10087800040203189E2C893104358C3E82009E2C7C
:10088800EE3028009200D030752CF030280092000D
:100898006030752CF13028009200F030752CF33060
:1008A800280092008030752CF53028009200103016
:1008B800752CF63028009200A030752CF8302800EE
:1008C80092003030752CF93028009200C030752C19
:1008D800FB30280092005030752CFC302800920024
:1008E800E030910013149E2C20005008003A0319A0
:1008F8007E2C9E2C4F08D03E031C9E2C84000A3070
:10090800040203189E2C89310435A03E82009E2CD7
:100918007B08003A0319912C9E2C7A08D03E031CC0
:100928009E2C84000A30040203189E2C8931043559
:10093800B43E820020001312141FB42E1413210099
:1009480053035404031DB22E200055035604031903
:100958009F2EB22E7B30762E7C307B2E7D30280069
:1009680099008830882E7F30280099001830882E0A
:100978008030172E81301C2E8330262E833028009D
:100988009900C830882EE82C853028009900583006
:10099800882E20004E08003A0319D32CB22E4D0899
:1009A800D03E031CB22E84000A3004020318B22E73
:1009B80089310435C83E8200B22E8630302E86300A
:1009C80028009900E830882E8730352E88303A2E56
:1009D80089303F2E8A30280099000830882E8A30C6
:1009E800582E8B30280099009830882E8C305D2E38
:1009F8008D30280099002830882E20004E08003AB3
:100A08000319072DB22E4D08D03E031CB22E8400C8
:100A18000A3004020318B22E89310435DC3E820004
:100A2800B22E8D30622E8E3028009900B830882E74
:100A38008F30672E9030280099004830882E9130EA
:100A48006C2E913028009900D830882E9230712E63
:100A58009330280099006830882E9430762E943090
:100A680028009900F830882E20004E08003A031913
:100A78003E2DB22E4D08D03E031CB22E84000A3003
:100A880004020318B22E8A310435003E8200B22EC9
:100A980095307B2E9730802E9830852E9A301C2EDC
:100AA8009C30262E9D302B2E9F30302EA030352E98
:100AB800A2303F2EA330582E20004E08003A0319CA
:100AC800662DB22E4D08D03E031CB22E84000A308B
:100AD80004020318B22E8A310435143E8200B22E65
:100AE800A5305D2EA630622EA830672EAA306C2E57
:100AF800AB30712EAD30762EAE307B2EB030802EDE
:100B0800B130852EB3301C2E20004E08003A031950
:100B18008E2DB22E4D08D03E031CB22E84000A3012
:100B280004020318B22E8A310435283E8200B22E00
:100B3800B530262EB6302B2EB830302EB930352EA3
:100B4800BB303F2EBC30582EBE305D2EBF30622EDB
:100B5800C130672EC3306C2E20004E08003A0319AE
:100B6800B62DB22E4D08D03E031CB22E84000A309A
:100B780004020318B22E8A3104353C3E8200B22E9C
:100B8800C430712EC630762EC7307B2EC930802EE9
:100B9800CA30852ECC301C2ECE30262ECF302B2EB0
:100BA800D130302ED230352E20004E08003A0319AD
:100BB800DE2DB22E4D08D03E031CB22E84000A3022
:100BC80004020318B22E8A310435503E8200B22E38
:100BD800D4303F2ED530582ED7305D2ED830622EE7
:100BE800DA30672EDC306C2EDD30712EDF30762E59
:100BF800E0307B2EE230802E20004E08003A0319A8
:100C0800062EB22E4D08D03E031CB22E84000A30A8
:100C180004020318B22E8A310435643E8200B22ED3
:100C2800E330852EE43028009900A830882EE5307E
:100C3800280099007030882EE63028009900383056
:100C4800882EE730280099009801892EE83028007E
:100C580099009030882EEA30280099002030882E9C
:100C6800EB3028009900B030882EEC30280099002D
:100C78007830882EED30280099004030882E2000EA
:100C88004E08003A0319492EB22E4D08D03E031CD7
:100C9800B22E84000A3004020318B22E8A310435B9
:100CA800783E8200B22EEE3028009900D030882E8F
:100CB800F030280099006030882EF1302800990023
:100CC800F030882EF330280099008030882EF530D7
:100CD800280099001030882EF63028009900A0309E
:100CE800882EF830280099003030882EF9302800F6
:100CF8009900C030882EFB30280099005030882E8B
:100D0800FC3028009900E03098001A14B22E200018
:100D18004E08003A0319912EB22E4D08D03E031CFE
:100D2800B22E84000A3004020318B22E8A31043528
:100D38008C3E8200B22E21005C08003A0319A52ED1
:100D4800B22E5B08D03E031CB22E84000A30040287
:100D58000318B22E8A310435A03E820020001413F5
:100D68007108FF007E1009008631BA2E8731FC27F2
:100D78008631E0008731FD278631E100913084001B
:100D88008B308500A0308600003087001F308B3103
:100D98001D2386315A308400873085002030860034
:100DA8000130870048308B311D238631FA01FB0161
:100DB80045308400003085001B308B312323863179
:100DC800CF308400003085000E308B3123237E1015
:100DD80020008D311B2D2000A500250886008701E5
:100DE80020300106031DFD2E0130A0002008A507B4
:100DF800F12E250886008701093001060319F82E0F
:100E0800A301A401A2012508860087012D3001064F
:100E1800031D132F0130A0002008A2071A2F250850
:100E2800860087012B300106031D1E2F0130A0000C
:100E38002008A50725088600870101088A31B42201
:100E48008631031C452F20002408F3002308F200F4
:100E58000A30F4000030F5008B3158238631200029
:100E680025088600870101087207A0007308031887
:100E7800730AA1002008D03EA300FF30213DA40042
:100E88001A2F200022080319552F2309A00024092E
:100E9800A100A00A0319A10A2008F8002108F900F6
:100EA80008002408F9002308F80008002434003456
:100EB800003400340034003400340034003400348A
:100EC800003400340034003400340034003400347A
:100ED800003400340034003400340034003400346A
:100EE800003400340034003400340034003400345A
:100EF80000340034613400340034003400340034E9
:100F08000034003400340034003400340034003439
:100F18000034003400340034003400340034003429
:100F28000034003400340034003400340034003419
:100F38000034003400340034003400342000A201AE
:100F4800A301A001A1017308A3007208A20023084D
:100F5800803AF6007508803A7602031DB52F7408AA
:100F680022020318D82F20002208443E86000130B0
:100F780087000108F6002008203E8600013087001F
:100F8800760881000130A0070030A13D2330F6002B
:100F98002208443E8600013087007608810001302F
:100FA800A2070030A33DAB2F2000CB01CC010800E5
:100FB80028008D0126000D1429008D0128008C01C0
:100FC80026000C108C100C158C158C168C17240010
:100FD80090012300900121009015901223008C01AC
:100FE80021000C118C118C160E150E138E1708008B
:040FF800013400348C
:101000008031B2288031B4288031B6288031BA28A6
:101010008031BE288031C0288031C2288031C42868
:101020008031C8288031C9288031E0288031E22809
:101030008031E6288031E8288031EA288031EC28A8
:101040008031F0288031F2288031F6288031F8286C
:1010500081310F29813111298131152981311729D8
:1010600081311B2981311D29813121298131232998
:101070008131272981312929813140298131422932
:1010800081314429813146298131482981314A29D8
:1010900081314C2981314E298131502981315229A8
:1010A000813167298131692981316B2981316D292C
:1010B00081316F29813171298131732981317529FC
:1010C000813177298131792981318E2981319029A6
:1010D0008131922981319429813196298131982950
:1010E00081319A2981319C2981319E298131A02920
:1010F0008131B5298131B7298131B9298131BB29A4
:101100008131BD298131BF298131C1298131C32973
:101110008131C5298131C7298131DC298131DE291D
:101120008131E0298131E2298131E4298131E629C7
:101130008131E8298131EA298131EC298131EE2997
:101140008231032A8231052A8231092A82310D2A0D
:101150008231112A8231152A8231192A82311D2ABF
:101160008231212A8231252A82313C2A8231402A49
:101170008231442A8231482A82314C2A8231502AD3
:101180008231542A8231582A82315C2A8231602A83
:101190008031CD288031FC2881312D29813154299D
:1011A00081317B298131A2298131C9298131F029FD
:1011B0008231292A8231662A82319B2A82319D2AF4
:1011C00082319F2A8231A42A8231A92A8231AB2A14
:1011D0008231AD2A8231AF2A8231B42A8231B52AD6
:101200008231CE2A8231D02A8231D52A8231D72A20
:101210008231D92A8231DB2A8231E02A8231E22AE4
:101220008231E72A8231E92A8331022B8331042B70
:101230008331092B83310B2B8331102B8331122BFC
:101240008331172B8331192B83311E2B8331202BB4
:101250008331392B83313B2B83313D2B83313F2B22
:101260008331412B8331432B8331452B8331472BF2
:101270008331492B83314B2B8331612B8331632B9A
:101280008331652B8331672B8331692B83316B2B42
:1012900083316D2B83316F2B8331712B8331732B12
:1012A0008331892B83318B2B83318D2B83318F2B92
:1012B0008331912B8331932B8331952B8331972B62
:1012C0008331992B83319B2B8331B12B8331B32B0A
:1012D0008331B52B8331B72B8331B92B8331BB2BB2
:1012E0008331BD2B8331BF2B8331C12B8331C32B82
:1012F0008331D92B8331DB2B8331DD2B8331DF2B02
:101300008331E12B8331E32B8331E52B8331E72BD1
:101310008331E92B8331EB2B8431012C8431032C75
:101320008431082C84310D2C8431122C8431172CFB
:1013300084311C2C8431212C8431262C84312B2C9B
:101340008431442C8431492C84314E2C8431532CEB
:101350008431582C84315D2C8431622C8431672C8B
:1013600084316C2C8431712C8231BA2A8231EE2A7C
:101370008331252B83314D2B8331752B83319D2B6D
:101380008331C52B8331ED2B8431302C8431782C83
:101390008431AE2C8431B02C8431B22C8431B72C02
:1013A0008431BC2C8431BE2C8431C02C8431C22CBD
:1013B0008431C72C8431C82C8431E12C8431E32C56
:1013C0008431E82C8431EA2C8431EC2C8431EE2CED
:1013D0008431F32C8431F52C8431FA2C8431FC2CAB
:101400008531152D8531172D85311C2D85311E2DEA
:101410008531232D8531252D85312A2D85312C2DA2
:101420008531312D8531332D85314C2D85314E2D32
:101430008531502D8531522D8531542D8531562DD4
:101440008531582D85315A2D85315C2D85315E2DA4
:101450008531742D8531762D8531782D85317A2D24
:1014600085317C2D85317E2D8531802D8531822DF4
:101470008531842D8531862D85319C2D85319E2D9C
:101480008531A02D8531A22D8531A42D8531A62D44
:101490008531A82D8531AA2D8531AC2D8531AE2D14
:1014A0008531C42D8531C62D8531C82D8531CA2D94
:1014B0008531CC2D8531CE2D8531D02D8531D22D64
:1014C0008531D42D8531D62D8531EC2D8531EE2D0C
:1014D0008531F02D8531F22D8531F42D8531F62DB4
:1014E0008531F82D8531FA2D8531FC2D8531FE2D84
:1014F0008631142E8631162E86311B2E8631202EF3
:101500008631252E86312A2E86312F2E8631342E95
:101510008631392E86313E2E8631572E86315C2E0D
:101520008631612E8631662E86316B2E8631702E85
:101530008631752E86317A2E86317F2E8631842E25
:101540008431CD2C8531012D8531382D8531602DAB
:101550008531882D8531B02D8531D82D8631002EED
:101560008631432E86318B2EF300F2013A3073021E
:101570000318C02A30307302031CC02AF201F20A99
:10158000720C0800043025009300920191012000A4
:101590001111210011158B170B170800200098015D
:1015A0009901970196011110210011148B170B1747
:1015B000080028009A019B0199019801200013114D
:1015C0002100131508002800930194019201910154
:1015D00020001310210013140800083020009C0084
:1015E0009A019110210091148B170B170800843079
:1015F0002C009C009B019A0120001413210014135D
:1016000008008430260093009101920120001312FB
:10161000210013120800083028009E009C012000C1
:1016200093112100931508000830280097009501B8
:1016300020009310210093140800FE0012001E00E9
:10164000FE0B1E2B0034640080010131890B242B1A
:1016500000342100911211120A3023009F009030B3
:101660009D0024309E00A0309B0001309C008B1711
:101670000B172100911623009E169D170800F500F8
:10168000F301F40104307306740403190800230005
:101690009E1C472B75088600870101089A000130BF
:1016A000F2007208F5070130F3070030F43D422BD9
:1016B000F601F701721C602B7408F6077508F73DF8
:1016C0000130F435F50D890B612B0130F336F20C46
:1016D000890B662B72087304031D5A2B7708F300DD
:1016E0007608F20008008B3129238B318A31C2221F
:1016F0008B318B3101238B318A31F7228B318A3147
:10170000CE228B318A31E3228B318A31ED228B312B
:101710008B3114238B318A31D9228B318B310B23BE
:1017200008003034303430343034303454343034D1
:101730003034303430343034303430343034303489
:101740003034303430343034303430343034303479
:101750003034303430343034003400340034003429
:101760002000B400BB01BC01BD01BE01B901BA013A
:10177000543026060319092DAE01AF012708D03ECB
:10178000BD00FF3003180030BE003408AC002C0848
:10179000B7002608AC002C08B80037308631EF2699
:1017A0008B3179082000BA007808B9002808AC000D
:1017B0002C08B5002908AC002C08B600353086315D
:1017C000EF268B3179082000AF007808AE002A0898
:1017D000D03EB000FF3003180030B1003A08AD0031
:1017E0003908AC00AC35AD0D2C08FF3EB200FF301F
:1017F0002D3DB3003008AC003208A03E86008701C2
:101800002C0881003A08AD003908AC00AC35AD0DAC
:10181000AC35AD0D2C08FD3EBB00FF302D3DBC00AE
:101820004730AC003B08A53E860087012C088100AC
:101830000130BB070030BC3D2708AC003B08A53E8B
:10184000860087012C0881000130BB070030BC3DB9
:101850003408AC003B08A53E860087012C088100B7
:101860000130BB070030BC3D2608AC003B08A53E5C
:10187000860087012C088100FD30BB07FF30BC3D8E
:1018800031302B06031D492C3B08A53E8B313F23ED
:101890008B312000E001E101092D3E082100D80034
:1018A00020003D082100D70020003D083E04031D14
:1018B000662C2100111120003D18612C200090168B
:1018C000632C20009012D901DA01832C3D033E04E1
:1018D000031D832C2100111520002808AC002C08C2
:1018E000DF000130D9000030DA002808AC00AD017B
:1018F0002C08D3002D08D4002908AC00AD012C0819
:10190000D1002D08D2003E08C6003D08C5000800E1
:101910003E082100D60020003D082100D50020000F
:101920003D083E04031DA12C2100131220003D1888
:101930009C2C20008C159E2C20008C11D701D801E6
:10194000BE2C3D033E04031DBE2C210013162000B7
:101950002808AC002C08DE000130D7000030D80089
:101960002808AC00AD012C08FA002D08FB0029085E
:10197000AC00AD012C08CF002D08D0003E0821009E
:10198000D20020003D082100D100080020003E08C0
:101990002100D40020003D082100D30020003D0894
:1019A0003E04031DE02CD501D601210014132000B4
:1019B0003D18DD2C20000C15012D20000C11012DEF
:1019C0003D033E04031D012D2100141720002808AB
:1019D000AC002C08DD000130D5000030D60028080E
:1019E000AC00AD012C082100DB0020002D082100F7
:1019F000DC0020002908AC00AD012C08CD002D082A
:101A0000CE003E082100D00020003D082100CF007C
:101A1000080020003A08003A03190F2D1A2D390842
:101A2000013A03194D2C033A0319882C013A031982
:101A3000C62C1A2D080029302000C0009630BF00A7
:101A40007F30890B212DBF0B212DC00B212D2100B3
:101A5000BF01C001C101C201C701C801C301C40166
:101A6000C501C601C901CA018731DC278D318B311F
:101A700073238D3125000C108C10200090168C15CE
:101A80000C150130C9000030CA000130C700003019
:101A9000C8000130C5000030C60001302100D1006F
:101AA0000030D2000130CF000030D00025302000BF
:101AB000BF003F082100A50040302000BF003F08C4
:101AC0002100BA00210059035A04031DB52ED90183
:101AD000DA01C701C801C901CA0125302200440644
:101AE000031D142E25304506031D142E40305206CA
:101AF000031D142E40305306031D142E2100CD016A
:101B0000CE014E08803A2000BF0080303F02031D06
:101B10008C2D103021004D0203186C2E21004D0831
:101B2000443E86000130870025300106031DAF2D9D
:101B30004D08013E443E86000130870025300106F5
:101B4000031DAF2D47084804031DAF2D4E08C000EC
:101B50004D08BF000130C7000030C8000E2E4D08F0
:101B6000443E86000130870025300106031DCB2D41
:101B70004D08013E443E86000130870025300106B5
:101B8000031DCB2D47034804031DCB2D4E08C20077
:101B90004D08C1000E2E4D08443E860001308700DE
:101BA00040300106031DEC2D4D08013E443E8600E9
:101BB0000130870040300106031DEC2D49084A041E
:101BC000031DEC2D4E08C4004D08C3000130C900B0
:101BD0000030CA000130092E21004D08443E860025
:101BE0000130870040300106031D0E2E4D08013ED6
:101BF000443E86000130870040300106031D0E2E52
:101C000049034A04031D0E2E4E08C6004D08C500A8
:101C100002302000CB000030CC006C2E01302100BF
:101C2000CD070030CE3D812D34302000BF00F13093
:101C3000890B182EBF0B182E0032503023009A004B
:101C400006302000BF003030890B242EBF0B242E1D
:101C500000004B3023009A0006302000BF003030D7
:101C6000890B302EBF0B302E00002000DB01DC0181
:101C700023009D139D172100CB01CC014C08803A15
:101C80002000BF0080303F02031D492E0F3021008D
:101C90004B020318692E23302000BF0021004B089F
:101CA000443E86000130870020003F08810001305B
:101CB0002100CB070030CC3D4C08803A2000BF000B
:101CC00080303F02031D672E0F3021004B02031CA2
:101CD0004B2E2000CB01CC0120004B034C04031DF4
:101CE0007A2E21004008F3003F08F2004408F50076
:101CF0004308882E023020004B064C04031DB52EED
:101D000021004208F3004108F2004608F5004508AA
:101D1000F4008731A2278D31220023082000BF0064
:101D20003F08A600220024082000C0004008A700A9
:101D3000220025082000C1004108A8002200260832
:101D40002000C2004208A900220027082000C3008A
:101D50004308AA00220028082000C4004408AB0061
:101D6000220022088B31B0238D3121002108031D70
:101D7000ED2E25008C1BED2E200049084A04031D82
:101D8000ED2E60036104031DE52E5230BF003F08B5
:101D90002100A60030302000BF003F082100A7002E
:101DA00030302000BF003F082100A8003130200063
:101DB000BF003F082100A900A6308B313F238D31A1
:101DC0002100D701D801200090160130C900003051
:101DD000CA000130E0000030E10021002108031DAD
:101DE000232F25008C1F232F200049034A04031DA5
:101DF000232F60036104031D1D2F5230BF003F08D5
:101E00002100A60031302000BF003F082100A700BC
:101E100030302000BF003F082100A80031302000F2
:101E2000BF003F082100A900A6308B313F238D3130
:101E30002100D701D80120009012C901CA01013048
:101E4000E0000030E10021002308031D5B2F250086
:101E50008C1A5B2F200047084804031D5B2F60038A
:101E60006104031D532F5230BF003F082100AA0018
:101E700030302000BF003F082100AB003030200090
:101E8000BF003F082100AC0032302000BF003F08F7
:101E90002100AD00AA308B313F238D312100D501C7
:101EA000D60120008C150130C7000030C800013079
:101EB000E0000030E10021002308031D912F2500E0
:101EC0008C1E912F200047034804031D912F6003AF
:101ED0006104031D8B2F5230BF003F082100AA0070
:101EE00031302000BF003F082100AB00303020001F
:101EF000BF003F082100AC0032302000BF003F0887
:101F00002100AD00AA308B313F238D312100D50156
:101F1000D60120008C11C701C8010130E00000305B
:101F2000E10021002508031DC92F25008C19C92FA8
:101F3000200045084604031DC92F60036104031DEA
:101F4000C12F5230BF003F082100AE0030302000CA
:101F5000BF003F082100AF0030302000BF003F0825
:101F60002100B00033302000BF003F082100B10045
:101F7000AE308B313F238D312100D301D4012000BD
:101F80000C150130C5000030C6000130E000003003
:101F9000E10021002508031D622D25008C1D622D06
:101FA000200045034604031D622D60036104031DE8
:101FB000F92F5230BF003F082100AE003130200021
:101FC000BF003F082100AF0030302000BF003F08B5
:101FD0002100B00033302000BF003F082100B100D5
:101FE000AE308B313F238D312100D301D40120004D
:101FF0000C11C501C6010130E0000030E100622D86
:020000040001F9
:04000E00A2C9FFDDA7
:00000001FF
